{
  "address": "0xa28d16f5bc2f6132fdf9939a1aa324d88ed33a56",
  "abi": [
    {
      "inputs": [
        {
          "internalType": "contract IBVault",
          "name": "_vault",
          "type": "address"
        }
      ],
      "stateMutability": "nonpayable",
      "type": "constructor"
    },
    {
      "inputs": [
        {
          "internalType": "bytes32",
          "name": "poolId",
          "type": "bytes32"
        }
      ],
      "name": "claimAssetManagerRewards",
      "outputs": [],
      "stateMutability": "nonpayable",
      "type": "function"
    },
    {
      "inputs": [
        {
          "internalType": "bytes32",
          "name": "poolId",
          "type": "bytes32"
        },
        {
          "internalType": "address payable",
          "name": "recipient",
          "type": "address"
        },
        {
          "components": [
            {
              "internalType": "contract IAsset[]",
              "name": "assets",
              "type": "address[]"
            },
            {
              "internalType": "uint256[]",
              "name": "minAmountsOut",
              "type": "uint256[]"
            },
            {
              "internalType": "bytes",
              "name": "userData",
              "type": "bytes"
            },
            {
              "internalType": "bool",
              "name": "toInternalBalance",
              "type": "bool"
            }
          ],
          "internalType": "struct IBVault.ExitPoolRequest",
          "name": "request",
          "type": "tuple"
        },
        {
          "internalType": "uint256[]",
          "name": "minCashBalances",
          "type": "uint256[]"
        }
      ],
      "name": "exitPool",
      "outputs": [],
      "stateMutability": "nonpayable",
      "type": "function"
    },
    {
      "inputs": [
        {
          "internalType": "bytes32",
          "name": "poolId",
          "type": "bytes32"
        }
      ],
      "name": "hasCalledPool",
      "outputs": [
        {
          "internalType": "bool",
          "name": "",
          "type": "bool"
        }
      ],
      "stateMutability": "view",
      "type": "function"
    },
    {
      "inputs": [
        {
          "internalType": "bytes32",
          "name": "poolId",
          "type": "bytes32"
        },
        {
          "internalType": "address",
          "name": "recipient",
          "type": "address"
        },
        {
          "components": [
            {
              "internalType": "contract IAsset[]",
              "name": "assets",
              "type": "address[]"
            },
            {
              "internalType": "uint256[]",
              "name": "maxAmountsIn",
              "type": "uint256[]"
            },
            {
              "internalType": "bytes",
              "name": "userData",
              "type": "bytes"
            },
            {
              "internalType": "bool",
              "name": "fromInternalBalance",
              "type": "bool"
            }
          ],
          "internalType": "struct IBVault.JoinPoolRequest",
          "name": "request",
          "type": "tuple"
        }
      ],
      "name": "joinPool",
      "outputs": [],
      "stateMutability": "nonpayable",
      "type": "function"
    },
    {
      "inputs": [],
      "name": "vault",
      "outputs": [
        {
          "internalType": "contract IBVault",
          "name": "",
          "type": "address"
        }
      ],
      "stateMutability": "view",
      "type": "function"
    }
  ],
  "transactionHash": "0xad997c1c6e902634e2212b546da3d1cfd4f9d341fe1060b04933b239b09b5454",
  "args": [
    "0xBA12222222228d8Ba445958a75a0704d566BF2C8"
  ],
  "numDeployments": 1,
  "solcInputHash": "fe38d9136e7a4282eee5c8ab30475865",
  "bytecode": "0x60a060405234801561001057600080fd5b5060405161117238038061117283398101604081905261002f91610049565b60601b6001600160601b0319166080526001600055610077565b60006020828403121561005a578081fd5b81516001600160a01b0381168114610070578182fd5b9392505050565b60805160601c6110b46100be6000396000818160c601528181610192015281816102f4015281816103920152818161042c0152818161066d015261088a01526110b46000f3fe608060405234801561001057600080fd5b50600436106100575760003560e01c80635c93c3b01461005c578063b2cca2e314610071578063d5a9d03e14610084578063dd0a7e2614610097578063fbfa77cf146100c1575b600080fd5b61006f61006a366004610d23565b610100565b005b61006f61007f366004610d9f565b610218565b61006f610092366004610d0b565b610379565b6100ac6100a5366004610d0b565b6000541490565b60405190151581526020015b60405180910390f35b6100e87f000000000000000000000000000000000000000000000000000000000000000081565b6040516001600160a01b0390911681526020016100b8565b8151600054859190839060011461015e5760405162461bcd60e51b815260206004820152601d60248201527f526562616c616e63696e672072656c61796572207265656e746572656400000060448201526064015b60405180910390fd5b600061016983610582565b905061017684828461065c565b6000849055604051638bdb391360e01b81526001600160a01b037f00000000000000000000000000000000000000000000000000000000000000001690638bdb3913906101cd908b9033908c908c90600401610f51565b600060405180830381600087803b1580156101e757600080fd5b505af11580156101fb573d6000803e3d6000fd5b50505050610209848261087a565b50506001600055505050505050565b805180518491906001600160401b0381111561024457634e487b7160e01b600052604160045260246000fd5b60405190808252806020026020018201604052801561026d578160200160208202803683370190505b506000546001146102c05760405162461bcd60e51b815260206004820152601d60248201527f526562616c616e63696e672072656c61796572207265656e74657265640000006044820152606401610155565b60006102cb83610582565b90506102d884828461065c565b600084905560405163172b958560e31b81526001600160a01b037f0000000000000000000000000000000000000000000000000000000000000000169063b95cac289061032f908a9033908b908b90600401610f51565b600060405180830381600087803b15801561034957600080fd5b505af115801561035d573d6000803e3d6000fd5b5050505061036b848261087a565b505060016000555050505050565b604051631f29a8cd60e31b8152600481018290526000907f00000000000000000000000000000000000000000000000000000000000000006001600160a01b03169063f94d46689060240160006040518083038186803b1580156103dc57600080fd5b505afa1580156103f0573d6000803e3d6000fd5b505050506040513d6000823e601f3d908101601f191682016040526104189190810190610c3d565b5050905060005b815181101561057d5760007f00000000000000000000000000000000000000000000000000000000000000006001600160a01b031663b05f8e488585858151811061047a57634e487b7160e01b600052603260045260246000fd5b60200260200101516040518363ffffffff1660e01b81526004016104b19291909182526001600160a01b0316602082015260400190565b60806040518083038186803b1580156104c957600080fd5b505afa1580156104dd573d6000803e3d6000fd5b505050506040513d601f19601f820116820180604052508101906105019190610df5565b935050506001600160a01b03821615905061056a57806001600160a01b031663372500ab6040518163ffffffff1660e01b8152600401600060405180830381600087803b15801561055157600080fd5b505af1158015610565573d6000803e3d6000fd5b505050505b50806105758161101f565b91505061041f565b505050565b6060600082516001600160401b038111156105ad57634e487b7160e01b600052604160045260246000fd5b6040519080825280602002602001820160405280156105d6578160200160208202803683370190505b50905060005b83518110156106555783818151811061060557634e487b7160e01b600052603260045260246000fd5b602002602001015182828151811061062d57634e487b7160e01b600052603260045260246000fd5b6001600160a01b039092166020928302919091019091015261064e8161101f565b90506105dc565b5092915050565b60005b8251811015610874576000807f00000000000000000000000000000000000000000000000000000000000000006001600160a01b031663b05f8e48878786815181106106bb57634e487b7160e01b600052603260045260246000fd5b60200260200101516040518363ffffffff1660e01b81526004016106f29291909182526001600160a01b0316602082015260400190565b60806040518083038186803b15801561070a57600080fd5b505afa15801561071e573d6000803e3d6000fd5b505050506040513d601f19601f820116820180604052508101906107429190610df5565b92945091925050506001600160a01b0381161561085f57600084848151811061077b57634e487b7160e01b600052603260045260246000fd5b6020026020010151905080831015610802576001600160a01b038216632b13a509886107a78685611008565b6040516001600160e01b031960e085901b16815260048101929092526024820152604401600060405180830381600087803b1580156107e557600080fd5b505af11580156107f9573d6000803e3d6000fd5b5050505061085d565b604051630b5ff6b960e01b8152600481018890526001600160a01b03831690630b5ff6b990602401600060405180830381600087803b15801561084457600080fd5b505af1158015610858573d6000803e3d6000fd5b505050505b505b5050808061086c9061101f565b91505061065f565b50505050565b60005b815181101561057d5760007f00000000000000000000000000000000000000000000000000000000000000006001600160a01b031663b05f8e48858585815181106108d857634e487b7160e01b600052603260045260246000fd5b60200260200101516040518363ffffffff1660e01b815260040161090f9291909182526001600160a01b0316602082015260400190565b60806040518083038186803b15801561092757600080fd5b505afa15801561093b573d6000803e3d6000fd5b505050506040513d601f19601f8201168201806040525081019061095f9190610df5565b935050506001600160a01b0382161590506109d657604051632649b6c560e11b815260048101859052600060248201526001600160a01b03821690634c936d8a90604401600060405180830381600087803b1580156109bd57600080fd5b505af11580156109d1573d6000803e3d6000fd5b505050505b50806109e18161101f565b91505061087d565b600082601f8301126109f9578081fd5b81356020610a0e610a0983610fe5565b610fb5565b80838252828201915082860187848660051b8901011115610a2d578586fd5b855b85811015610a54578135610a4281611066565b84529284019290840190600101610a2f565b5090979650505050505050565b600082601f830112610a71578081fd5b81356020610a81610a0983610fe5565b80838252828201915082860187848660051b8901011115610aa0578586fd5b855b85811015610a5457813584529284019290840190600101610aa2565b600082601f830112610ace578081fd5b81516020610ade610a0983610fe5565b80838252828201915082860187848660051b8901011115610afd578586fd5b855b85811015610a5457815184529284019290840190600101610aff565b80358015158114610b2b57600080fd5b919050565b600082601f830112610b40578081fd5b81356001600160401b03811115610b5957610b59611050565b610b6c601f8201601f1916602001610fb5565b818152846020838601011115610b80578283fd5b816020850160208301379081016020019190915292915050565b600060808284031215610bab578081fd5b610bb3610f8d565b905081356001600160401b0380821115610bcc57600080fd5b610bd8858386016109e9565b83526020840135915080821115610bee57600080fd5b610bfa85838601610a61565b60208401526040840135915080821115610c1357600080fd5b50610c2084828501610b30565b604083015250610c3260608301610b1b565b606082015292915050565b600080600060608486031215610c51578283fd5b83516001600160401b0380821115610c67578485fd5b818601915086601f830112610c7a578485fd5b81516020610c8a610a0983610fe5565b8083825282820191508286018b848660051b8901011115610ca957898afd5b8996505b84871015610cd4578051610cc081611066565b835260019690960195918301918301610cad565b5091890151919750909350505080821115610ced578384fd5b50610cfa86828701610abe565b925050604084015190509250925092565b600060208284031215610d1c578081fd5b5035919050565b60008060008060808587031215610d38578182fd5b843593506020850135610d4a81611066565b925060408501356001600160401b0380821115610d65578384fd5b610d7188838901610b9a565b93506060870135915080821115610d86578283fd5b50610d9387828801610a61565b91505092959194509250565b600080600060608486031215610db3578081fd5b833592506020840135610dc581611066565b915060408401356001600160401b03811115610ddf578182fd5b610deb86828701610b9a565b9150509250925092565b60008060008060808587031215610e0a578182fd5b8451935060208501519250604085015191506060850151610e2a81611066565b939692955090935050565b6000815180845260208085019450808401835b83811015610e6457815187529582019590820190600101610e48565b509495945050505050565b60008151808452815b81811015610e9457602081850181015186830182015201610e78565b81811115610ea55782602083870101525b50601f01601f19169290920160200192915050565b8051608080845281519084018190526000916020919082019060a0860190845b81811015610eff5783516001600160a01b031683529284019291840191600101610eda565b505082850151915085810383870152610f188183610e35565b9250505060408301518482036040860152610f338282610e6f565b9150506060830151610f49606086018215159052565b509392505050565b8481526001600160a01b03848116602083015283166040820152608060608201819052600090610f8390830184610eba565b9695505050505050565b604051608081016001600160401b0381118282101715610faf57610faf611050565b60405290565b604051601f8201601f191681016001600160401b0381118282101715610fdd57610fdd611050565b604052919050565b60006001600160401b03821115610ffe57610ffe611050565b5060051b60200190565b60008282101561101a5761101a61103a565b500390565b60006000198214156110335761103361103a565b5060010190565b634e487b7160e01b600052601160045260246000fd5b634e487b7160e01b600052604160045260246000fd5b6001600160a01b038116811461107b57600080fd5b5056fea264697066735822122084b57a6b101a67e62273b8cc480a11a52b06d8d52f257cb695468f7b029acbf264736f6c63430008040033",
  "devdoc": {
    "details": "this contract behaves as proxy for joinPool and exitPool operations.      Is able to move invested funds to the Balancer's vault and handle big exitPool requests.      Need to be approved by Balancer's governance.",
    "kind": "dev",
    "methods": {
      "constructor": {
        "details": "all events are produced either AssetManagers or Balancer's vault."
      },
      "hasCalledPool(bytes32)": {
        "details": "returns true if relayer processing rebalce request for the given pool (pool Id)"
      }
    },
    "title": "Relayer",
    "version": 1
  },
  "userdoc": {
    "kind": "user",
    "methods": {
      "claimAssetManagerRewards(bytes32)": {
        "notice": "used to claim rewards from asset managers. Reward collection logic and         reward distribution controlled by AM"
      },
      "exitPool(bytes32,address,(address[],uint256[],bytes,bool),uint256[])": {
        "notice": "standard Balancer's vault exitPool request with the extra param minCashBalances.         minCashBalances - amounts of tokens for withdraw (exitPool). Used to calculate if AM should return tokens                           to the Balancer's vault to handle this request.         Calls asset manager's rebalance logic."
      },
      "joinPool(bytes32,address,(address[],uint256[],bytes,bool))": {
        "notice": "a standard Balancer's vault joinPool request. Calls asset manager's rebalance logic."
      }
    },
    "version": 1
  },
  "storageLayout": {
    "storage": [
      {
        "astId": 1580,
        "contract": "contracts/Relayer.sol:Relayer",
        "label": "_calledPool",
        "offset": 0,
        "slot": "0",
        "type": "t_bytes32"
      }
    ],
    "types": {
      "t_bytes32": {
        "encoding": "inplace",
        "label": "bytes32",
        "numberOfBytes": "32"
      }
    }
  }
}