{
  "address": "0x34A9779d7C669eb76CED331961Fe007EAE156CB2",
  "abi": [
    {
      "inputs": [
        {
          "internalType": "contract IVault",
          "name": "vault",
          "type": "address"
        },
        {
          "internalType": "string",
          "name": "name",
          "type": "string"
        },
        {
          "internalType": "string",
          "name": "symbol",
          "type": "string"
        },
        {
          "internalType": "contract IERC20[]",
          "name": "tokens",
          "type": "address[]"
        },
        {
          "internalType": "uint256",
          "name": "amplificationParameter",
          "type": "uint256"
        },
        {
          "internalType": "uint256",
          "name": "swapFeePercentage",
          "type": "uint256"
        },
        {
          "internalType": "uint256",
          "name": "pauseWindowDuration",
          "type": "uint256"
        },
        {
          "internalType": "uint256",
          "name": "bufferPeriodDuration",
          "type": "uint256"
        },
        {
          "internalType": "address",
          "name": "owner",
          "type": "address"
        },
        {
          "internalType": "contract IBasePoolRelayer",
          "name": "relayer",
          "type": "address"
        },
        {
          "internalType": "address[]",
          "name": "assetManagers",
          "type": "address[]"
        }
      ],
      "stateMutability": "nonpayable",
      "type": "constructor"
    },
    {
      "anonymous": false,
      "inputs": [
        {
          "indexed": false,
          "internalType": "uint256",
          "name": "startValue",
          "type": "uint256"
        },
        {
          "indexed": false,
          "internalType": "uint256",
          "name": "endValue",
          "type": "uint256"
        },
        {
          "indexed": false,
          "internalType": "uint256",
          "name": "startTime",
          "type": "uint256"
        },
        {
          "indexed": false,
          "internalType": "uint256",
          "name": "endTime",
          "type": "uint256"
        }
      ],
      "name": "AmpUpdateStarted",
      "type": "event"
    },
    {
      "anonymous": false,
      "inputs": [
        {
          "indexed": false,
          "internalType": "uint256",
          "name": "currentValue",
          "type": "uint256"
        }
      ],
      "name": "AmpUpdateStopped",
      "type": "event"
    },
    {
      "anonymous": false,
      "inputs": [
        {
          "indexed": true,
          "internalType": "address",
          "name": "owner",
          "type": "address"
        },
        {
          "indexed": true,
          "internalType": "address",
          "name": "spender",
          "type": "address"
        },
        {
          "indexed": false,
          "internalType": "uint256",
          "name": "value",
          "type": "uint256"
        }
      ],
      "name": "Approval",
      "type": "event"
    },
    {
      "anonymous": false,
      "inputs": [
        {
          "indexed": false,
          "internalType": "bool",
          "name": "paused",
          "type": "bool"
        }
      ],
      "name": "PausedStateChanged",
      "type": "event"
    },
    {
      "anonymous": false,
      "inputs": [
        {
          "indexed": false,
          "internalType": "uint256",
          "name": "swapFeePercentage",
          "type": "uint256"
        }
      ],
      "name": "SwapFeePercentageChanged",
      "type": "event"
    },
    {
      "anonymous": false,
      "inputs": [
        {
          "indexed": true,
          "internalType": "address",
          "name": "from",
          "type": "address"
        },
        {
          "indexed": true,
          "internalType": "address",
          "name": "to",
          "type": "address"
        },
        {
          "indexed": false,
          "internalType": "uint256",
          "name": "value",
          "type": "uint256"
        }
      ],
      "name": "Transfer",
      "type": "event"
    },
    {
      "inputs": [],
      "name": "DOMAIN_SEPARATOR",
      "outputs": [
        {
          "internalType": "bytes32",
          "name": "",
          "type": "bytes32"
        }
      ],
      "stateMutability": "view",
      "type": "function"
    },
    {
      "inputs": [
        {
          "internalType": "address",
          "name": "owner",
          "type": "address"
        },
        {
          "internalType": "address",
          "name": "spender",
          "type": "address"
        }
      ],
      "name": "allowance",
      "outputs": [
        {
          "internalType": "uint256",
          "name": "",
          "type": "uint256"
        }
      ],
      "stateMutability": "view",
      "type": "function"
    },
    {
      "inputs": [
        {
          "internalType": "address",
          "name": "spender",
          "type": "address"
        },
        {
          "internalType": "uint256",
          "name": "amount",
          "type": "uint256"
        }
      ],
      "name": "approve",
      "outputs": [
        {
          "internalType": "bool",
          "name": "",
          "type": "bool"
        }
      ],
      "stateMutability": "nonpayable",
      "type": "function"
    },
    {
      "inputs": [
        {
          "internalType": "address",
          "name": "account",
          "type": "address"
        }
      ],
      "name": "balanceOf",
      "outputs": [
        {
          "internalType": "uint256",
          "name": "",
          "type": "uint256"
        }
      ],
      "stateMutability": "view",
      "type": "function"
    },
    {
      "inputs": [],
      "name": "decimals",
      "outputs": [
        {
          "internalType": "uint8",
          "name": "",
          "type": "uint8"
        }
      ],
      "stateMutability": "view",
      "type": "function"
    },
    {
      "inputs": [
        {
          "internalType": "address",
          "name": "spender",
          "type": "address"
        },
        {
          "internalType": "uint256",
          "name": "amount",
          "type": "uint256"
        }
      ],
      "name": "decreaseAllowance",
      "outputs": [
        {
          "internalType": "bool",
          "name": "",
          "type": "bool"
        }
      ],
      "stateMutability": "nonpayable",
      "type": "function"
    },
    {
      "inputs": [
        {
          "internalType": "bytes4",
          "name": "selector",
          "type": "bytes4"
        }
      ],
      "name": "getActionId",
      "outputs": [
        {
          "internalType": "bytes32",
          "name": "",
          "type": "bytes32"
        }
      ],
      "stateMutability": "view",
      "type": "function"
    },
    {
      "inputs": [],
      "name": "getAmplificationParameter",
      "outputs": [
        {
          "internalType": "uint256",
          "name": "value",
          "type": "uint256"
        },
        {
          "internalType": "bool",
          "name": "isUpdating",
          "type": "bool"
        },
        {
          "internalType": "uint256",
          "name": "precision",
          "type": "uint256"
        }
      ],
      "stateMutability": "view",
      "type": "function"
    },
    {
      "inputs": [],
      "name": "getAuthorizer",
      "outputs": [
        {
          "internalType": "contract IAuthorizer",
          "name": "",
          "type": "address"
        }
      ],
      "stateMutability": "view",
      "type": "function"
    },
    {
      "inputs": [],
      "name": "getLastInvariant",
      "outputs": [
        {
          "internalType": "uint256",
          "name": "lastInvariant",
          "type": "uint256"
        },
        {
          "internalType": "uint256",
          "name": "lastInvariantAmp",
          "type": "uint256"
        }
      ],
      "stateMutability": "view",
      "type": "function"
    },
    {
      "inputs": [],
      "name": "getOwner",
      "outputs": [
        {
          "internalType": "address",
          "name": "",
          "type": "address"
        }
      ],
      "stateMutability": "view",
      "type": "function"
    },
    {
      "inputs": [],
      "name": "getPausedState",
      "outputs": [
        {
          "internalType": "bool",
          "name": "paused",
          "type": "bool"
        },
        {
          "internalType": "uint256",
          "name": "pauseWindowEndTime",
          "type": "uint256"
        },
        {
          "internalType": "uint256",
          "name": "bufferPeriodEndTime",
          "type": "uint256"
        }
      ],
      "stateMutability": "view",
      "type": "function"
    },
    {
      "inputs": [],
      "name": "getPoolId",
      "outputs": [
        {
          "internalType": "bytes32",
          "name": "",
          "type": "bytes32"
        }
      ],
      "stateMutability": "view",
      "type": "function"
    },
    {
      "inputs": [],
      "name": "getRate",
      "outputs": [
        {
          "internalType": "uint256",
          "name": "",
          "type": "uint256"
        }
      ],
      "stateMutability": "view",
      "type": "function"
    },
    {
      "inputs": [],
      "name": "getRelayer",
      "outputs": [
        {
          "internalType": "contract IBasePoolRelayer",
          "name": "",
          "type": "address"
        }
      ],
      "stateMutability": "view",
      "type": "function"
    },
    {
      "inputs": [],
      "name": "getScalingFactors",
      "outputs": [
        {
          "internalType": "uint256[]",
          "name": "",
          "type": "uint256[]"
        }
      ],
      "stateMutability": "view",
      "type": "function"
    },
    {
      "inputs": [],
      "name": "getSwapFeePercentage",
      "outputs": [
        {
          "internalType": "uint256",
          "name": "",
          "type": "uint256"
        }
      ],
      "stateMutability": "view",
      "type": "function"
    },
    {
      "inputs": [],
      "name": "getVault",
      "outputs": [
        {
          "internalType": "contract IVault",
          "name": "",
          "type": "address"
        }
      ],
      "stateMutability": "view",
      "type": "function"
    },
    {
      "inputs": [
        {
          "internalType": "address",
          "name": "spender",
          "type": "address"
        },
        {
          "internalType": "uint256",
          "name": "addedValue",
          "type": "uint256"
        }
      ],
      "name": "increaseAllowance",
      "outputs": [
        {
          "internalType": "bool",
          "name": "",
          "type": "bool"
        }
      ],
      "stateMutability": "nonpayable",
      "type": "function"
    },
    {
      "inputs": [],
      "name": "name",
      "outputs": [
        {
          "internalType": "string",
          "name": "",
          "type": "string"
        }
      ],
      "stateMutability": "view",
      "type": "function"
    },
    {
      "inputs": [
        {
          "internalType": "address",
          "name": "owner",
          "type": "address"
        }
      ],
      "name": "nonces",
      "outputs": [
        {
          "internalType": "uint256",
          "name": "",
          "type": "uint256"
        }
      ],
      "stateMutability": "view",
      "type": "function"
    },
    {
      "inputs": [
        {
          "internalType": "bytes32",
          "name": "poolId",
          "type": "bytes32"
        },
        {
          "internalType": "address",
          "name": "sender",
          "type": "address"
        },
        {
          "internalType": "address",
          "name": "recipient",
          "type": "address"
        },
        {
          "internalType": "uint256[]",
          "name": "balances",
          "type": "uint256[]"
        },
        {
          "internalType": "uint256",
          "name": "lastChangeBlock",
          "type": "uint256"
        },
        {
          "internalType": "uint256",
          "name": "protocolSwapFeePercentage",
          "type": "uint256"
        },
        {
          "internalType": "bytes",
          "name": "userData",
          "type": "bytes"
        }
      ],
      "name": "onExitPool",
      "outputs": [
        {
          "internalType": "uint256[]",
          "name": "",
          "type": "uint256[]"
        },
        {
          "internalType": "uint256[]",
          "name": "",
          "type": "uint256[]"
        }
      ],
      "stateMutability": "nonpayable",
      "type": "function"
    },
    {
      "inputs": [
        {
          "internalType": "bytes32",
          "name": "poolId",
          "type": "bytes32"
        },
        {
          "internalType": "address",
          "name": "sender",
          "type": "address"
        },
        {
          "internalType": "address",
          "name": "recipient",
          "type": "address"
        },
        {
          "internalType": "uint256[]",
          "name": "balances",
          "type": "uint256[]"
        },
        {
          "internalType": "uint256",
          "name": "lastChangeBlock",
          "type": "uint256"
        },
        {
          "internalType": "uint256",
          "name": "protocolSwapFeePercentage",
          "type": "uint256"
        },
        {
          "internalType": "bytes",
          "name": "userData",
          "type": "bytes"
        }
      ],
      "name": "onJoinPool",
      "outputs": [
        {
          "internalType": "uint256[]",
          "name": "",
          "type": "uint256[]"
        },
        {
          "internalType": "uint256[]",
          "name": "",
          "type": "uint256[]"
        }
      ],
      "stateMutability": "nonpayable",
      "type": "function"
    },
    {
      "inputs": [
        {
          "components": [
            {
              "internalType": "enum IVault.SwapKind",
              "name": "kind",
              "type": "uint8"
            },
            {
              "internalType": "contract IERC20",
              "name": "tokenIn",
              "type": "address"
            },
            {
              "internalType": "contract IERC20",
              "name": "tokenOut",
              "type": "address"
            },
            {
              "internalType": "uint256",
              "name": "amount",
              "type": "uint256"
            },
            {
              "internalType": "bytes32",
              "name": "poolId",
              "type": "bytes32"
            },
            {
              "internalType": "uint256",
              "name": "lastChangeBlock",
              "type": "uint256"
            },
            {
              "internalType": "address",
              "name": "from",
              "type": "address"
            },
            {
              "internalType": "address",
              "name": "to",
              "type": "address"
            },
            {
              "internalType": "bytes",
              "name": "userData",
              "type": "bytes"
            }
          ],
          "internalType": "struct IPoolSwapStructs.SwapRequest",
          "name": "swapRequest",
          "type": "tuple"
        },
        {
          "internalType": "uint256[]",
          "name": "balances",
          "type": "uint256[]"
        },
        {
          "internalType": "uint256",
          "name": "indexIn",
          "type": "uint256"
        },
        {
          "internalType": "uint256",
          "name": "indexOut",
          "type": "uint256"
        }
      ],
      "name": "onSwap",
      "outputs": [
        {
          "internalType": "uint256",
          "name": "",
          "type": "uint256"
        }
      ],
      "stateMutability": "nonpayable",
      "type": "function"
    },
    {
      "inputs": [
        {
          "components": [
            {
              "internalType": "enum IVault.SwapKind",
              "name": "kind",
              "type": "uint8"
            },
            {
              "internalType": "contract IERC20",
              "name": "tokenIn",
              "type": "address"
            },
            {
              "internalType": "contract IERC20",
              "name": "tokenOut",
              "type": "address"
            },
            {
              "internalType": "uint256",
              "name": "amount",
              "type": "uint256"
            },
            {
              "internalType": "bytes32",
              "name": "poolId",
              "type": "bytes32"
            },
            {
              "internalType": "uint256",
              "name": "lastChangeBlock",
              "type": "uint256"
            },
            {
              "internalType": "address",
              "name": "from",
              "type": "address"
            },
            {
              "internalType": "address",
              "name": "to",
              "type": "address"
            },
            {
              "internalType": "bytes",
              "name": "userData",
              "type": "bytes"
            }
          ],
          "internalType": "struct IPoolSwapStructs.SwapRequest",
          "name": "request",
          "type": "tuple"
        },
        {
          "internalType": "uint256",
          "name": "balanceTokenIn",
          "type": "uint256"
        },
        {
          "internalType": "uint256",
          "name": "balanceTokenOut",
          "type": "uint256"
        }
      ],
      "name": "onSwap",
      "outputs": [
        {
          "internalType": "uint256",
          "name": "",
          "type": "uint256"
        }
      ],
      "stateMutability": "nonpayable",
      "type": "function"
    },
    {
      "inputs": [
        {
          "internalType": "address",
          "name": "owner",
          "type": "address"
        },
        {
          "internalType": "address",
          "name": "spender",
          "type": "address"
        },
        {
          "internalType": "uint256",
          "name": "value",
          "type": "uint256"
        },
        {
          "internalType": "uint256",
          "name": "deadline",
          "type": "uint256"
        },
        {
          "internalType": "uint8",
          "name": "v",
          "type": "uint8"
        },
        {
          "internalType": "bytes32",
          "name": "r",
          "type": "bytes32"
        },
        {
          "internalType": "bytes32",
          "name": "s",
          "type": "bytes32"
        }
      ],
      "name": "permit",
      "outputs": [],
      "stateMutability": "nonpayable",
      "type": "function"
    },
    {
      "inputs": [
        {
          "internalType": "bytes32",
          "name": "poolId",
          "type": "bytes32"
        },
        {
          "internalType": "address",
          "name": "sender",
          "type": "address"
        },
        {
          "internalType": "address",
          "name": "recipient",
          "type": "address"
        },
        {
          "internalType": "uint256[]",
          "name": "balances",
          "type": "uint256[]"
        },
        {
          "internalType": "uint256",
          "name": "lastChangeBlock",
          "type": "uint256"
        },
        {
          "internalType": "uint256",
          "name": "protocolSwapFeePercentage",
          "type": "uint256"
        },
        {
          "internalType": "bytes",
          "name": "userData",
          "type": "bytes"
        }
      ],
      "name": "queryExit",
      "outputs": [
        {
          "internalType": "uint256",
          "name": "bptIn",
          "type": "uint256"
        },
        {
          "internalType": "uint256[]",
          "name": "amountsOut",
          "type": "uint256[]"
        }
      ],
      "stateMutability": "nonpayable",
      "type": "function"
    },
    {
      "inputs": [
        {
          "internalType": "bytes32",
          "name": "poolId",
          "type": "bytes32"
        },
        {
          "internalType": "address",
          "name": "sender",
          "type": "address"
        },
        {
          "internalType": "address",
          "name": "recipient",
          "type": "address"
        },
        {
          "internalType": "uint256[]",
          "name": "balances",
          "type": "uint256[]"
        },
        {
          "internalType": "uint256",
          "name": "lastChangeBlock",
          "type": "uint256"
        },
        {
          "internalType": "uint256",
          "name": "protocolSwapFeePercentage",
          "type": "uint256"
        },
        {
          "internalType": "bytes",
          "name": "userData",
          "type": "bytes"
        }
      ],
      "name": "queryJoin",
      "outputs": [
        {
          "internalType": "uint256",
          "name": "bptOut",
          "type": "uint256"
        },
        {
          "internalType": "uint256[]",
          "name": "amountsIn",
          "type": "uint256[]"
        }
      ],
      "stateMutability": "nonpayable",
      "type": "function"
    },
    {
      "inputs": [
        {
          "internalType": "contract IERC20",
          "name": "token",
          "type": "address"
        },
        {
          "internalType": "bytes",
          "name": "poolConfig",
          "type": "bytes"
        }
      ],
      "name": "setAssetManagerPoolConfig",
      "outputs": [],
      "stateMutability": "nonpayable",
      "type": "function"
    },
    {
      "inputs": [
        {
          "internalType": "bool",
          "name": "paused",
          "type": "bool"
        }
      ],
      "name": "setPaused",
      "outputs": [],
      "stateMutability": "nonpayable",
      "type": "function"
    },
    {
      "inputs": [
        {
          "internalType": "uint256",
          "name": "swapFeePercentage",
          "type": "uint256"
        }
      ],
      "name": "setSwapFeePercentage",
      "outputs": [],
      "stateMutability": "nonpayable",
      "type": "function"
    },
    {
      "inputs": [
        {
          "internalType": "uint256",
          "name": "rawEndValue",
          "type": "uint256"
        },
        {
          "internalType": "uint256",
          "name": "endTime",
          "type": "uint256"
        }
      ],
      "name": "startAmplificationParameterUpdate",
      "outputs": [],
      "stateMutability": "nonpayable",
      "type": "function"
    },
    {
      "inputs": [],
      "name": "stopAmplificationParameterUpdate",
      "outputs": [],
      "stateMutability": "nonpayable",
      "type": "function"
    },
    {
      "inputs": [],
      "name": "symbol",
      "outputs": [
        {
          "internalType": "string",
          "name": "",
          "type": "string"
        }
      ],
      "stateMutability": "view",
      "type": "function"
    },
    {
      "inputs": [],
      "name": "totalSupply",
      "outputs": [
        {
          "internalType": "uint256",
          "name": "",
          "type": "uint256"
        }
      ],
      "stateMutability": "view",
      "type": "function"
    },
    {
      "inputs": [
        {
          "internalType": "address",
          "name": "recipient",
          "type": "address"
        },
        {
          "internalType": "uint256",
          "name": "amount",
          "type": "uint256"
        }
      ],
      "name": "transfer",
      "outputs": [
        {
          "internalType": "bool",
          "name": "",
          "type": "bool"
        }
      ],
      "stateMutability": "nonpayable",
      "type": "function"
    },
    {
      "inputs": [
        {
          "internalType": "address",
          "name": "sender",
          "type": "address"
        },
        {
          "internalType": "address",
          "name": "recipient",
          "type": "address"
        },
        {
          "internalType": "uint256",
          "name": "amount",
          "type": "uint256"
        }
      ],
      "name": "transferFrom",
      "outputs": [
        {
          "internalType": "bool",
          "name": "",
          "type": "bool"
        }
      ],
      "stateMutability": "nonpayable",
      "type": "function"
    }
  ],
  "transactionHash": "0x347dc272587ae7c811220d277d066694f56767789d1786d7912739ff13ff3c72",
  "args": [
    "0xBA12222222228d8Ba445958a75a0704d566BF2C8",
    "TetuStablePoolAM_USDC_DAI_USDT",
    "TETUSTAM",
    [
      "0x2791Bca1f2de4661ED88A30C99A7a9449Aa84174",
      "0x8f3Cf7ad23Cd3CaDbD9735AFf958023239c6A063",
      "0xc2132D05D31c914a87C6611C10748AEb04B58e8F"
    ],
    500,
    3000000000000000,
    0,
    0,
    "0xaaa01Cb6C7570733aE3eDeD876a98C9Bc373803b",
    "0xa28d16f5bc2f6132fdf9939a1aa324d88ed33a56",
    [
      "0x3Ed7beb6E198B82512663eE2C487410DCB0Ee039",
      "0x9aE258231DC64551ab3b268251FB5899eF3089eB",
      "0xf285d2fcC006fd23B1A001b6eA90b12f4a3EeB2a"
    ]
  ],
  "numDeployments": 2,
  "solcInputHash": "2b902021cde8c203cf94e3c0752bf971",
  "bytecode": "0x6103406040527f6e71edae12b1b97f4d1f60370fef10105fa2faae0126114a169c64845d6126c9610120523480156200003757600080fd5b50604051620053df380380620053df8339810160408190526200005a9162000b6f565b818b8b8b8b8b8b8b8b8b8a898751600214620000785760006200007b565b60025b8a8a8a858a8a8a8a828289898180604051806040016040528060018152602001603160f81b815250848489336001600160a01b031660001b806080818152505050806001600160a01b031660a0816001600160a01b031660601b81525050508160039080519060200190620000f29291906200092d565b508051620001089060049060208401906200092d565b50506005805460ff1916601217905550815160209283012060c052805191012060e05250507f8b73c3c69bb8fe3d512ecc4cf759cc79239f7b179b0ffacaa9a75d522b39400f6101005250620001676276a70083111561019462000578565b6200017b62278d0082111561019562000578565b42909101610140819052016101605285516200019d906002111560c862000578565b620001b7620001ab6200058d565b8751111560c962000578565b620001cd866200059260201b62000f061760201c565b620001d8846200059e565b6040516309b2760f60e01b81526000906001600160a01b038c16906309b2760f9062000209908d9060040162000d5d565b602060405180830381600087803b1580156200022457600080fd5b505af115801562000239573d6000803e3d6000fd5b505050506040513d601f19601f820116820180604052508101906200025f919062000b56565b604051633354e3e960e11b81529091506001600160a01b038c16906366a9c7d290620002949084908b908b9060040162000cc1565b600060405180830381600087803b158015620002af57600080fd5b505af1158015620002c4573d6000803e3d6000fd5b5050505060609a909a1b6001600160601b031916610180525050506101a0969096525062000301945050506001891015915061012c905062000578565b6200031461138887111561012d62000578565b86516101c0819052875188906000906200032a57fe5b60200260200101516001600160a01b03166101e0816001600160a01b031660601b81525050876001815181106200035d57fe5b60200260200101516001600160a01b0316610200816001600160a01b031660601b815250506002811162000393576000620003aa565b87600281518110620003a157fe5b60200260200101515b60601b6001600160601b0319166102205260038111620003cc576000620003e3565b87600381518110620003da57fe5b60200260200101515b60601b6001600160601b0319166102405260048111620004055760006200041c565b876004815181106200041357fe5b60200260200101515b6001600160a01b0316610260816001600160a01b031660601b815250506200045f886000815181106200044b57fe5b60200260200101516200062a60201b60201c565b6102805287516200047890899060019081106200044b57fe5b6102a052600281116200048d5760006200049f565b6200049f886002815181106200044b57fe5b6102c05260038111620004b4576000620004c6565b620004c6886003815181106200044b57fe5b6102e05260048111620004db576000620004ed565b620004ed886004815181106200044b57fe5b6103008181525050600062000510886103e8620006d660201b62000f101760201c565b90506200051d8162000707565b505050505050505050505050620005556200054c826001600160a01b03166200074660201b62000f341760201c565b61014362000578565b60601b6001600160601b031916610320525062000dff9950505050505050505050565b81620005895762000589816200074c565b5050565b600590565b8062000589816200079f565b620005b364e8d4a5100082101560cb62000578565b620005cb67016345785d8a000082111560ca62000578565b620005ea8160c06008546200082c60201b62000f3a179092919060201c565b6008556040517fa9ba3ffe0b6c366b81232caab38605a0699ad5398d6cce76f91ee809e322dafc906200061f90839062000d72565b60405180910390a150565b600080826001600160a01b031663313ce5676040518163ffffffff1660e01b815260040160206040518083038186803b1580156200066757600080fd5b505afa1580156200067c573d6000803e3d6000fd5b505050506040513d601f19601f82011682018060405250810190620006a2919062000c9e565b60ff1690506000620006c16012836200084160201b62000f4f1760201c565b600a0a670de0b6b3a764000002949350505050565b6000828202620006fe841580620006f6575083858381620006f357fe5b04145b600362000578565b90505b92915050565b620007158180428062000859565b7fa0d01593e47e69d07e0ccd87bece09411e07dd1ed40ca8f2e7af2976542a0233816040516200061f919062000d72565b3b151590565b62461bcd60e51b6000908152602060045260076024526642414c23000030600a808404818106603090810160081b95839006959095019082900491820690940160101b939093010160c81b604452606490fd5b600281511015620007b05762000829565b600081600081518110620007c057fe5b602002602001015190506000600190505b825181101562000826576000838281518110620007ea57fe5b602002602001015190506200081b816001600160a01b0316846001600160a01b03161060656200057860201b60201c565b9150600101620007d1565b50505b50565b6001600160401b03811b1992909216911b1790565b60006200085383831115600162000578565b50900390565b6200087a816001600160401b031660c06200092960201b62000f651760201c565b6200089b836001600160401b031660806200092960201b62000f651760201c565b620008bc856001600160401b031660406200092960201b62000f651760201c565b620008dd876001600160401b031660006200092960201b62000f651760201c565b1717176009556040517f1835882ee7a34ac194f717a35e09bb1d24c82a3b9d854ab6c9749525b714cdf2906200091b90869086908690869062000d7b565b60405180910390a150505050565b1b90565b828054600181600116156101000203166002900490600052602060002090601f016020900481019282601f106200097057805160ff1916838001178555620009a0565b82800160010185558215620009a0579182015b82811115620009a057825182559160200191906001019062000983565b50620009ae929150620009b2565b5090565b5b80821115620009ae5760008155600101620009b3565b8051620007018162000de9565b600082601f830112620009e7578081fd5b8151620009fe620009f88262000dbd565b62000d96565b81815291506020808301908481018184028601820187101562000a2057600080fd5b60005b8481101562000a4c57815162000a398162000de9565b8452928201929082019060010162000a23565b505050505092915050565b600082601f83011262000a68578081fd5b815162000a79620009f88262000dbd565b81815291506020808301908481018184028601820187101562000a9b57600080fd5b60005b8481101562000a4c57815162000ab48162000de9565b8452928201929082019060010162000a9e565b600082601f83011262000ad8578081fd5b81516001600160401b0381111562000aee578182fd5b602062000b04601f8301601f1916820162000d96565b9250818352848183860101111562000b1b57600080fd5b60005b8281101562000b3b57848101820151848201830152810162000b1e565b8281111562000b4d5760008284860101525b50505092915050565b60006020828403121562000b68578081fd5b5051919050565b60008060008060008060008060008060006101608c8e03121562000b91578687fd5b62000b9d8d8d620009c9565b60208d0151909b506001600160401b0381111562000bb9578788fd5b62000bc78e828f0162000ac7565b60408e0151909b5090506001600160401b0381111562000be5578788fd5b62000bf38e828f0162000ac7565b60608e0151909a5090506001600160401b0381111562000c11578788fd5b62000c1f8e828f0162000a57565b98505060808c0151965060a08c0151955060c08c0151945060e08c0151935062000c4e8d6101008e01620009c9565b925062000c608d6101208e01620009c9565b6101408d01519092506001600160401b0381111562000c7d578182fd5b62000c8b8e828f01620009d6565b9150509295989b509295989b9093969950565b60006020828403121562000cb0578081fd5b815160ff81168114620006fe578182fd5b60006060820185835260206060818501528186518084526080860191508288019350845b8181101562000d0d5762000cfa855162000ddd565b8352938301939183019160010162000ce5565b505084810360408601528551808252908201925081860190845b8181101562000d4f5762000d3c835162000ddd565b8552938301939183019160010162000d27565b509298975050505050505050565b602081016003831062000d6c57fe5b91905290565b90815260200190565b93845260208401929092526040830152606082015260800190565b6040518181016001600160401b038111828210171562000db557600080fd5b604052919050565b60006001600160401b0382111562000dd3578081fd5b5060209081020190565b6001600160a01b031690565b6001600160a01b03811681146200082957600080fd5b60805160a05160601c60c05160e051610100516101205161014051610160516101805160601c6101a0516101c0516101e05160601c6102005160601c6102205160601c6102405160601c6102605160601c610280516102a0516102c0516102e051610300516103205160601c6144d462000f0b6000398061099b5280610ce25280610e5652508061226b5250806122475250806122235250806121ff5250806121db525080611e36525080611df4525080611db25250806127c5525080612793525080610f6b5250806107b7525080610b175250806113125250806112ee525080610d395250806115675250806115a9525080611588525080610af3525080610a7d52506144d46000f3fe608060405234801561001057600080fd5b50600436106102275760003560e01c80636daccffa116101305780639b02cdde116100b8578063bdc503731161007c578063bdc5037314610488578063d505accf14610490578063d5c096c4146104a3578063dd62ed3e146104b6578063eb0f24d6146104c957610227565b80639b02cdde146104315780639d2c110c14610447578063a457c2d71461045a578063a9059cbb1461046d578063aaabadc51461048057610227565b8063851c1bb3116100ff578063851c1bb3146103e657806387ec6817146103f9578063893d20e81461040c5780638d928af81461042157806395d89b411461042957610227565b80636daccffa1461038857806370a082311461039f57806374f3b009146103b25780637ecebe00146103d357610227565b8063313ce567116101b35780633950935111610182578063395093511461033157806350dd6ed91461034457806355c67628146103575780636028bfd41461035f578063679aefce1461038057610227565b8063313ce567146102f95780633644e5151461030e57806338e9922e1461031657806338fff2d01461032957610227565b806318160ddd116101fa57806318160ddd1461029f5780631c0de051146102a75780631dd746ea146102be57806323b872dd146102d35780632f1a0bc9146102e657610227565b806301ec954a1461022c57806306fdde0314610255578063095ea7b31461026a57806316c38b3c1461028a575b600080fd5b61023f61023a36600461406f565b6104d1565b60405161024c91906142da565b60405180910390f35b61025d610530565b60405161024c91906143b0565b61027d610278366004613d05565b6105c7565b60405161024c91906142b7565b61029d610298366004613dfb565b6105de565b005b61023f6105f2565b6102af6105f8565b60405161024c939291906142c2565b6102c6610621565b60405161024c919061427f565b61027d6102e1366004613c50565b610630565b61029d6102f4366004614142565b6106a6565b610301610789565b60405161024c919061441b565b61023f610792565b61029d61032436600461412a565b61079c565b61023f6107b5565b61027d61033f366004613d05565b6107d9565b61029d610352366004613f19565b610814565b61023f610832565b61037261036d366004613e33565b610843565b60405161024c9291906143c3565b61023f61087a565b610390610958565b60405161024c939291906143dc565b61023f6103ad366004613bfc565b610973565b6103c56103c0366004613e33565b610992565b60405161024c929190614292565b61023f6103e1366004613bfc565b610a5e565b61023f6103f4366004613ed5565b610a79565b610372610407366004613e33565b610acb565b610414610af1565b60405161024c919061426b565b610414610b15565b61025d610b39565b610439610b9a565b60405161024c9291906143f2565b61023f6104553660046140df565b610ba4565b61027d610468366004613d05565b610c8b565b61027d61047b366004613d05565b610cc9565b610414610cd6565b610414610ce0565b61029d61049e366004613c90565b610d04565b6103c56104b1366004613e33565b610e4d565b61023f6104c4366004613c18565b610eaf565b61029d610eda565b60006104e583836104e0610f69565b610f8d565b60606104ef610faa565b905060008651600181111561050057fe5b146105175761051286868686856110e0565b610524565b6105248686868685611157565b9150505b949350505050565b60038054604080516020601f60026000196101006001881615020190951694909404938401819004810282018101909252828152606093909290918301828280156105bc5780601f10610591576101008083540402835291602001916105bc565b820191906000526020600020905b81548152906001019060200180831161059f57829003601f168201915b505050505090505b90565b60006105d43384846111bb565b5060015b92915050565b6105e6611223565b6105ef81611251565b50565b60025490565b60008060006106056112cf565b1592506106106112ec565b915061061a611310565b9050909192565b606061062b610faa565b905090565b60008061063d8533610eaf565b9050610661336001600160a01b03871614806106595750838210155b61019e611334565b61066c858585611342565b336001600160a01b0386161480159061068757506000198114155b156106995761069985338584036111bb565b60019150505b9392505050565b6106ae611223565b6106be600183101561012c611334565b6106cf61138883111561012d611334565b60006106db8242610f4f565b90506106ef6201518082101561013d611334565b6000806106fa611422565b9150915061070b811561013e611334565b6000610719866103e8610f10565b90506000838211610748576107436107346201518086610f10565b61073e8488610f10565b611496565b610762565b6107626107586201518084610f10565b61073e8688610f10565b9050610774600282111561013f611334565b610780848342896114c9565b50505050505050565b60055460ff1690565b600061062b611563565b6107a4611223565b6107ac611600565b6105ef81611615565b7f000000000000000000000000000000000000000000000000000000000000000090565b3360008181526001602090815260408083206001600160a01b038716845290915281205490916105d491859061080f9086611680565b6111bb565b61081c611223565b610824611600565b61082e8282611692565b5050565b60085460009061062b9060c0611791565b600060606108598651610854610f69565b61179e565b61086e898989898989896117ab61184e6118af565b97509795505050505050565b60006060610886610b15565b6001600160a01b031663f94d466861089c6107b5565b6040518263ffffffff1660e01b81526004016108b891906142da565b60006040518083038186803b1580156108d057600080fd5b505afa1580156108e4573d6000803e3d6000fd5b505050506040513d6000823e601f3d908101601f1916820160405261090c9190810190613d30565b50915050600061091a611422565b50905061092e82610929610faa565b6119d2565b600061093c82846000611a33565b90506109506109496105f2565b8290611bcf565b935050505090565b6000806000610965611422565b90949093506103e892509050565b6001600160a01b0381166000908152602081905260409020545b919050565b60608088610a3d7f00000000000000000000000000000000000000000000000000000000000000006001600160a01b031663dd0a7e26836040518263ffffffff1660e01b81526004016109e591906142da565b60206040518083038186803b1580156109fd57600080fd5b505afa158015610a11573d6000803e3d6000fd5b505050506040513d601f19601f82011682018060405250810190610a359190613e17565b610144611334565b610a4c8a8a8a8a8a8a8a611c20565b925092505b5097509795505050505050565b6001600160a01b031660009081526006602052604090205490565b60007f000000000000000000000000000000000000000000000000000000000000000082604051602001610aae929190614228565b604051602081830303815290604052805190602001209050919050565b60006060610adc8651610854610f69565b61086e89898989898989611cc1611d1a6118af565b7f000000000000000000000000000000000000000000000000000000000000000090565b7f000000000000000000000000000000000000000000000000000000000000000090565b60048054604080516020601f60026000196101006001881615020190951694909404938401819004810282018101909252828152606093909290918301828280156105bc5780601f10610591576101008083540402835291602001916105bc565b600a54600b549091565b600080610bb48560200151611d7b565b90506000610bc58660400151611d7b565b9050600086516001811115610bd657fe5b1415610c3c57610be98660600151611e81565b6060870152610bf88583611ea2565b9450610c048482611ea2565b9350610c14866060015183611ea2565b60608701526000610c26878787611eae565b9050610c328183611ef2565b935050505061069f565b610c468583611ea2565b9450610c528482611ea2565b9350610c62866060015182611ea2565b60608701526000610c74878787611efe565b9050610c808184611f2d565b9050610c3281611f39565b600080610c983385610eaf565b9050808310610cb257610cad338560006111bb565b610cbf565b610cbf33858584036111bb565b5060019392505050565b60006105d4338484611342565b600061062b611f5f565b7f000000000000000000000000000000000000000000000000000000000000000090565b610d128442111560d1611334565b6001600160a01b0387166000908152600660209081526040808320549051909291610d69917f0000000000000000000000000000000000000000000000000000000000000000918c918c918c9188918d9101614302565b6040516020818303038152906040528051906020012090506000610d8c82611fd9565b9050600060018288888860405160008152602001604052604051610db39493929190614392565b6020604051602081039080840390855afa158015610dd5573d6000803e3d6000fd5b5050604051601f1901519150610e1790506001600160a01b03821615801590610e0f57508b6001600160a01b0316826001600160a01b0316145b6101f8611334565b6001600160a01b038b166000908152600660205260409020600185019055610e408b8b8b6111bb565b5050505050505050505050565b60608088610ea07f00000000000000000000000000000000000000000000000000000000000000006001600160a01b031663dd0a7e26836040518263ffffffff1660e01b81526004016109e591906142da565b610a4c8a8a8a8a8a8a8a611ff5565b6001600160a01b03918216600090815260016020908152604080832093909416825291909152205490565b610ee2611223565b600080610eed611422565b91509150610efd81610140611334565b61082e82612125565b8061082e81612160565b600082820261069f841580610f2d575083858381610f2a57fe5b04145b6003611334565b3b151590565b6001600160401b03811b1992909216911b1790565b6000610f5f838311156001611334565b50900390565b1b90565b7f000000000000000000000000000000000000000000000000000000000000000090565b610fa58184108015610f9e57508183105b6064611334565b505050565b60606000610fb6610f69565b90506060816001600160401b0381118015610fd057600080fd5b50604051908082528060200260200182016040528015610ffa578160200160208202803683370190505b50905081156110295761100b6121d9565b8160008151811061101857fe5b602002602001018181525050611032565b91506105c49050565b6001821115611029576110436121fd565b8160018151811061105057fe5b60200260200101818152505060028211156110295761106d612221565b8160028151811061107a57fe5b602002602001018181525050600382111561102957611097612245565b816003815181106110a457fe5b6020026020010181815250506004821115611029576110c1612269565b816004815181106110ce57fe5b60200260200101818152505091505090565b60006110ec85836119d2565b61110d866060015183858151811061110057fe5b6020026020010151611ea2565b606087015260006111208787878761228d565b905061113f8184878151811061113257fe5b6020026020010151611f2d565b905061114a81611f39565b9150505b95945050505050565b60006111668660600151611e81565b606087015261117585836119d2565b611189866060015183868151811061110057fe5b6060870152600061119c878787876122b7565b905061114a818486815181106111ae57fe5b6020026020010151611ef2565b6001600160a01b0380841660008181526001602090815260408083209487168084529490915290819020849055517f8c5be1e5ebec7d5bd14f71427d1e84f3dd0314c0f7b2291e5b200ac8c7c3b925906112169085906142da565b60405180910390a3505050565b600061123a6000356001600160e01b031916610a79565b90506105ef61124982336122e1565b610191611334565b80156112715761126c6112626112ec565b4210610193611334565b611286565b61128661127c611310565b42106101a9611334565b6007805460ff19168215151790556040517f9e3a5e37224532dea67b89face185703738a228a6e8a23dee546960180d3be64906112c49083906142b7565b60405180910390a150565b60006112d9611310565b42118061062b57505060075460ff161590565b7f000000000000000000000000000000000000000000000000000000000000000090565b7f000000000000000000000000000000000000000000000000000000000000000090565b8161082e5761082e816123d1565b6113596001600160a01b0384161515610198611334565b6113706001600160a01b0383161515610199611334565b61137b838383610fa5565b6001600160a01b0383166000908152602081905260409020546113a190826101a0612424565b6001600160a01b0380851660009081526020819052604080822093909355908416815220546113d09082611680565b6001600160a01b0380841660008181526020819052604090819020939093559151908516907fddf252ad1be2c89b69c2b068fc378daa952ba7f163c4a11628f55a4df523b3ef906112169085906142da565b60008060008060008061143361243a565b93509350935093508042101561148657600194508383111561146a57818103824203858503028161146057fe5b0484019550611481565b818103824203848603028161147b57fe5b04840395505b61148e565b600094508295505b505050509091565b60006114a58215156004611334565b826114b2575060006105d8565b8160018403816114be57fe5b0460010190506105d8565b6114dd816001600160401b031660c0610f65565b6114f1836001600160401b03166080610f65565b611505856001600160401b03166040610f65565b611519876001600160401b03166000610f65565b1717176009556040517f1835882ee7a34ac194f717a35e09bb1d24c82a3b9d854ab6c9749525b714cdf290611555908690869086908690614400565b60405180910390a150505050565b60007f00000000000000000000000000000000000000000000000000000000000000007f00000000000000000000000000000000000000000000000000000000000000007f00000000000000000000000000000000000000000000000000000000000000006115d0612491565b306040516020016115e5959493929190614336565b60405160208183030381529060405280519060200120905090565b61161361160b6112cf565b610192611334565b565b61162864e8d4a5100082101560cb611334565b61163e67016345785d8a000082111560ca611334565b60085461164d908260c0610f3a565b6008556040517fa9ba3ffe0b6c366b81232caab38605a0699ad5398d6cce76f91ee809e322dafc906112c49083906142da565b600082820161069f8482101583611334565b600061169c6107b5565b905060006116a8610b15565b6001600160a01b031663b05f8e4883866040518363ffffffff1660e01b81526004016116d592919061437b565b60806040518083038186803b1580156116ed57600080fd5b505afa158015611701573d6000803e3d6000fd5b505050506040513d601f19601f820116820180604052508101906117259190614163565b604051630639cdb560e21b81529094506001600160a01b03851693506318e736d49250611759915085908790600401614362565b600060405180830381600087803b15801561177357600080fd5b505af1158015611787573d6000803e3d6000fd5b5050505050505050565b1c6001600160401b031690565b61082e8183146067611334565b60006060806117b86112cf565b156117db576117c78887612495565b90506117d68882610f4f612581565b611826565b6117e3610f69565b6001600160401b03811180156117f857600080fd5b50604051908082528060200260200182016040528015611822578160200160208202803683370190505b5090505b6118318886866125ec565b90935091506118408883612658565b985098509895505050505050565b60005b611859610f69565b811015610fa55761189083828151811061186f57fe5b602002602001015183838151811061188357fe5b6020026020010151611bcf565b83828151811061189c57fe5b6020908102919091010152600101611851565b33301461196d576000306001600160a01b03166000366040516118d3929190614240565b6000604051808303816000865af19150503d8060008114611910576040519150601f19603f3d011682016040523d82523d6000602084013e611915565b606091505b50509050806000811461192457fe5b60046000803e6000516001600160e01b0319166343adbafb60e01b811461194f573d6000803e3d6000fd5b506020600460003e604060205260243d03602460403e601c3d016000f35b6060611977610faa565b905061198387826119d2565b6000606061199b8c8c8c8c8c8c898d8d63ffffffff16565b50915091506119ae81848663ffffffff16565b8051601f1982018390526343adbafb603f1983015260200260231982016044820181fd5b60005b6119dd610f69565b811015610fa557611a148382815181106119f357fe5b6020026020010151838381518110611a0757fe5b6020026020010151612687565b838281518110611a2057fe5b60209081029190910101526001016119d5565b81516000908190815b81811015611a7457611a6a868281518110611a5357fe5b60200260200101518461168090919063ffffffff16565b9250600101611a3c565b5081611a855760009250505061069f565b600082878302825b60ff811015611bb7576000858a600081518110611aa657fe5b60200260200101510290506000600190505b86811015611afa57611af0611ae9611ae3848e8581518110611ad657fe5b6020026020010151610f10565b89610f10565b868c6126b3565b9150600101611ab8565b50839450611b6d611b3c611b23611b1a611b14878c610f10565b85610f10565b6103e88d6126b3565b611b36611b308a89610f10565b88610f10565b90611680565b611b67611b5a611b506103e8880386610f10565b6103e88e156126b3565b611b368a60010189610f10565b8b6126b3565b935084841115611b9557600185850311611b90578397505050505050505061069f565b611bae565b600184860311611bae578397505050505050505061069f565b50600101611a8d565b50611bc36101426123d1565b50505050509392505050565b6000611bde8215156004611334565b82611beb575060006105d8565b670de0b6b3a764000083810290611c0e90858381611c0557fe5b04146005611334565b828181611c1757fe5b049150506105d8565b60608088611c4a611c2f610b15565b6001600160a01b0316336001600160a01b03161460cd611334565b611c5f611c556107b5565b82146101f4611334565b6060611c69610faa565b9050611c7588826119d2565b6000606080611c8a8e8e8e8e8e8e8a8f6117ab565b925092509250611c9a8d846126d3565b611ca4828561184e565b611cae818561184e565b909d909c509a5050505050505050505050565b6000606080611cce611600565b6060611cda8988612495565b9050611ce98982610f4f612581565b60006060611cf88b89896126dd565b91509150611d068b82612736565b909d909c50909a5098505050505050505050565b60005b611d25610f69565b811015610fa557611d5c838281518110611d3b57fe5b6020026020010151838381518110611d4f57fe5b6020026020010151612743565b838281518110611d6857fe5b6020908102919091010152600101611d1d565b6000611d8682612791565b15611d9a57611d936121d9565b905061098d565b611da3826127c3565b15611db057611d936121fd565b7f00000000000000000000000000000000000000000000000000000000000000006001600160a01b0316826001600160a01b03161415611df257611d93612221565b7f00000000000000000000000000000000000000000000000000000000000000006001600160a01b0316826001600160a01b03161415611e3457611d93612245565b7f00000000000000000000000000000000000000000000000000000000000000006001600160a01b0316826001600160a01b03161415611e7657611d93612269565b61098d6101356123d1565b600080611e96611e8f610832565b84906127f5565b905061069f8382610f4f565b600061069f8383612687565b6000611ec5611ebb610f69565b60021460d2611334565b6060600080611ed5878787612831565b925092509250611ee7878484846122b7565b979650505050505050565b600061069f8383611bcf565b6000611f0b611ebb610f69565b6060600080611f1b878787612831565b925092509250611ee78784848461228d565b600061069f8383612743565b60006105d8611f58611f49610832565b670de0b6b3a764000090610f4f565b8390612743565b6000611f69610b15565b6001600160a01b031663aaabadc56040518163ffffffff1660e01b815260040160206040518083038186803b158015611fa157600080fd5b505afa158015611fb5573d6000803e3d6000fd5b505050506040513d601f19601f8201168201806040525081019061062b9190613efd565b6000611fe3611563565b82604051602001610aae929190614250565b60608088612004611c2f610b15565b61200f611c556107b5565b6060612019610faa565b90506120236105f2565b6120d557600060606120388d8d8d868b6128f2565b91509150612051612047612981565b83101560cc611334565b612063600061205e612981565b612988565b6120768b61206f612981565b8403612988565b6120808184611d1a565b80612089610f69565b6001600160401b038111801561209e57600080fd5b506040519080825280602002602001820160405280156120c8578160200160208202803683370190505b5095509550505050610a51565b6120df88826119d2565b60006060806120f48e8e8e8e8e8e8a8f611cc1565b9250925092506121048c84612988565b61210e8285611d1a565b612118818561184e565b9095509350610a51915050565b612131818242426114c9565b7fa0d01593e47e69d07e0ccd87bece09411e07dd1ed40ca8f2e7af2976542a0233816040516112c491906142da565b60028151101561216f576105ef565b60008160008151811061217e57fe5b602002602001015190506000600190505b8251811015610fa55760008382815181106121a657fe5b602002602001015190506121cf816001600160a01b0316846001600160a01b0316106065611334565b915060010161218f565b7f000000000000000000000000000000000000000000000000000000000000000090565b7f000000000000000000000000000000000000000000000000000000000000000090565b7f000000000000000000000000000000000000000000000000000000000000000090565b7f000000000000000000000000000000000000000000000000000000000000000090565b7f000000000000000000000000000000000000000000000000000000000000000090565b6000612297611600565b60006122a1611422565b5090506000611ee7828787878b60600151612992565b60006122c1611600565b60006122cb611422565b5090506000611ee7828787878b60600151612a56565b600073ba1ba1ba1ba1ba1ba1ba1ba1ba1ba1ba1ba1ba1b612300610af1565b6001600160a01b03161415801561231b575061231b83612afe565b1561234357612328610af1565b6001600160a01b0316336001600160a01b03161490506105d8565b61234b611f5f565b6001600160a01b0316639be2a8848484306040518463ffffffff1660e01b815260040161237a939291906142e3565b60206040518083038186803b15801561239257600080fd5b505afa1580156123a6573d6000803e3d6000fd5b505050506040513d601f19601f820116820180604052508101906123ca9190613e17565b90506105d8565b62461bcd60e51b6000908152602060045260076024526642414c23000030600a808404818106603090810160081b95839006959095019082900491820690940160101b939093010160c81b604452606490fd5b60006124338484111583611334565b5050900390565b600080600080612456600060095461179190919063ffffffff16565b600954909450612467906040611791565b600954909350612478906080611791565b6009549092506124899060c0611791565b905090919293565b4690565b6060806124a0610f69565b6001600160401b03811180156124b557600080fd5b506040519080825280602002602001820160405280156124df578160200160208202803683370190505b509050826124ee5790506105d8565b600080856000815181106124fe57fe5b602002602001015190506000600190505b612517610f69565b81101561254e57600087828151811061252c57fe5b6020026020010151905082811115612545578193508092505b5060010161250f565b50612560600b5487600a548589612b09565b83838151811061256c57fe5b60209081029190910101525090949350505050565b60005b61258c610f69565b8110156125e6576125c78482815181106125a257fe5b60200260200101518483815181106125b657fe5b60200260200101518463ffffffff16565b8482815181106125d357fe5b6020908102919091010152600101612584565b50505050565b6000606060006125fb84612b7d565b9050600081600281111561260b57fe5b14156126255761261b8685612b93565b9250925050612650565b600181600281111561263357fe5b14156126435761261b8685612c5d565b61261b868686612c8f565b505b935093915050565b6126658282610f4f612581565b600061266f611422565b509050610fa561268182856001611a33565b82612d0b565b60008282026126a1841580610f2d575083858381610f2a57fe5b670de0b6b3a764000090049392505050565b6000816126c9576126c48484612d16565b610528565b6105288484611496565b61082e8282612d36565b6000606060006126ec84612b7d565b905060018160028111156126fc57fe5b141561270d5761261b868686612df2565b600281600281111561271b57fe5b141561272b5761261b8685612e5c565b61264e6101366123d1565b6126658282611680612581565b60006127528215156004611334565b8261275f575060006105d8565b670de0b6b3a76400008381029061277990858381611c0557fe5b82600182038161278557fe5b046001019150506105d8565b7f00000000000000000000000000000000000000000000000000000000000000006001600160a01b0390811691161490565b7f00000000000000000000000000000000000000000000000000000000000000006001600160a01b0390811691161490565b600082820261280f841580610f2d575083858381610f2a57fe5b8061281e5760009150506105d8565b670de0b6b3a76400006000198201612785565b604080516002808252606082810190935260009182918160200160208202803683370190505092506128668660200151612791565b156128ac576000915060019050848360008151811061288157fe5b602002602001018181525050838360018151811061289b57fe5b6020026020010181815250506128e9565b600090506001915083836000815181106128c257fe5b60200260200101818152505084836001815181106128dc57fe5b6020026020010181815250505b93509350939050565b600060606128fe611600565b600061290984612b7d565b9050612924600082600281111561291c57fe5b1460ce611334565b606061292f85612ef0565b905061293e8151610854610f69565b61294881876119d2565b6000612952611422565b509050600061296382846001611a33565b9050806129708184612d0b565b9b929a509198505050505050505050565b620f424090565b61082e8282612f06565b6000806129a187876001611a33565b90506129c9838786815181106129b357fe5b6020026020010151610f4f90919063ffffffff16565b8685815181106129d557fe5b60200260200101818152505060006129ef88888489612f94565b9050838786815181106129fe57fe5b602002602001015101878681518110612a1357fe5b602002602001018181525050612a4a6001611b36898981518110612a3357fe5b602002602001015184610f4f90919063ffffffff16565b98975050505050505050565b600080612a6587876001611a33565b9050612a8d83878781518110612a7757fe5b602002602001015161168090919063ffffffff16565b868681518110612a9957fe5b6020026020010181815250506000612ab388888488612f94565b905083878781518110612ac257fe5b602002602001015103878781518110612ad757fe5b602002602001018181525050612a4a6001612af8838a89815181106129b357fe5b90610f4f565b60006105d882613144565b600080612b1887878787612f94565b905080868581518110612b2757fe5b602002602001015111612b3e57600091505061114e565b600081878681518110612b4d57fe5b6020026020010151039050612a4a670de0b6b3a7640000612b77868461268790919063ffffffff16565b90611bcf565b6000818060200190518101906105d89190613f66565b60006060612b9f611600565b600080612bab85613180565b91509150612bc3612bba610f69565b82106064611334565b6060612bcd610f69565b6001600160401b0381118015612be257600080fd5b50604051908082528060200260200182016040528015612c0c578160200160208202803683370190505b5090506000612c19611422565b509050612c3881898587612c2b6105f2565b612c33610832565b6131a2565b828481518110612c4457fe5b6020908102919091010152509196919550909350505050565b600060606000612c6c846132be565b90506060612c828683612c7d6105f2565b6132d4565b9196919550909350505050565b60006060612c9b611600565b60606000612ca885613385565b91509150612cb98251610854610f69565b612cc382876119d2565b6000612ccd611422565b5090506000612ced828a86612ce06105f2565b612ce8610832565b61339d565b9050612cfd8382111560cf611334565b989297509195505050505050565b600a91909155600b55565b6000612d258215156004611334565b818381612d2e57fe5b049392505050565b612d4d6001600160a01b038316151561019b611334565b612d5982600083610fa5565b6001600160a01b038216600090815260208190526040902054612d7f90826101a1612424565b6001600160a01b038316600090815260208190526040902055600254612da59082613631565b6002556040516000906001600160a01b038416907fddf252ad1be2c89b69c2b068fc378daa952ba7f163c4a11628f55a4df523b3ef90612de69085906142da565b60405180910390a35050565b60006060806000612e0285613385565b91509150612e18612e11610f69565b835161179e565b612e2282876119d2565b6000612e2c611422565b5090506000612e4c828a86612e3f6105f2565b612e47610832565b61363f565b9050612cfd8382101560d0611334565b60006060600080612e6c85613180565b91509150612e7b612bba610f69565b6060612e85610f69565b6001600160401b0381118015612e9a57600080fd5b50604051908082528060200260200182016040528015612ec4578160200160208202803683370190505b5090506000612ed1611422565b509050612c3881898587612ee36105f2565b612eeb610832565b6138b5565b60608180602001905181019061069f919061402b565b612f1260008383610fa5565b600254612f1f9082611680565b6002556001600160a01b038216600090815260208190526040902054612f459082611680565b6001600160a01b0383166000818152602081905260408082209390935591519091907fddf252ad1be2c89b69c2b068fc378daa952ba7f163c4a11628f55a4df523b3ef90612de69085906142da565b600080845186029050600085600081518110612fac57fe5b602002602001015190506000865187600081518110612fc757fe5b60200260200101510290506000600190505b875181101561302057613005612fff612ff8848b8581518110611ad657fe5b8a51610f10565b88612d16565b9150613016888281518110611a5357fe5b9250600101612fd9565b5086858151811061302d57fe5b60200260200101518203915060006130458788610f10565b9050600061307161306561305d8461073e8988610f10565b6103e8610f10565b8a8981518110611ad657fe5b9050600061308c61308561305d8b89612d16565b8690611680565b90506000806130a861309e8686611680565b61073e8d86611680565b905060005b60ff811015613128578192506130dd6130ca86611b368586610f10565b61073e8e612af888611b36886002610f10565b91508282111561310657600183830311613101575097506105289650505050505050565b613120565b600182840311613120575097506105289650505050505050565b6001016130ad565b506131346101426123d1565b5050505050505050949350505050565b6000613156632f1a0bc960e01b610a79565b821480613171575061316e637587926b60e11b610a79565b82145b806105d857506105d882613992565b600080828060200190518101906131979190613ff5565b909590945092505050565b6000806131b188886001611a33565b905060006131d3826131cd876131c7818b610f4f565b90612743565b906127f5565b905060006131e38a8a848b612f94565b905060006131f7828b8b815181106129b357fe5b90506000805b8b518110156132365761322c8c828151811061321557fe5b60200260200101518361168090919063ffffffff16565b91506001016131fd565b50600061325f828d8d8151811061324957fe5b6020026020010151611bcf90919063ffffffff16565b9050600061326c826139c4565b9050600061327a85836127f5565b905060006132888683610f4f565b90506132a96132a283670de0b6b3a76400008e9003612687565b8290611680565b99505050505050505050509695505050505050565b60008180602001905181019061069f9190613fc8565b606060006132e28484611bcf565b9050606085516001600160401b03811180156132fd57600080fd5b50604051908082528060200260200182016040528015613327578160200160208202803683370190505b50905060005b865181101561337b5761335c8388838151811061334657fe5b602002602001015161268790919063ffffffff16565b82828151811061336857fe5b602090810291909101015260010161332d565b5095945050505050565b60606000828060200190518101906131979190613f82565b600080805b86518110156133c4576133ba87828151811061321557fe5b91506001016133a2565b50606085516001600160401b03811180156133de57600080fd5b50604051908082528060200260200182016040528015613408578160200160208202803683370190505b5090506000805b88518110156134cf576000613440858b848151811061342a57fe5b602002602001015161274390919063ffffffff16565b905061347c8a838151811061345157fe5b60200260200101516131c78b858151811061346857fe5b60200260200101518d86815181106129b357fe5b84838151811061348857fe5b6020026020010181815250506134c46134bd828685815181106134a757fe5b60200260200101516127f590919063ffffffff16565b8490611680565b92505060010161340f565b50606088516001600160401b03811180156134e957600080fd5b50604051908082528060200260200182016040528015613513578160200160208202803683370190505b50905060005b89518110156135de57600084828151811061353057fe5b602002602001015184111561359757600061355961354d866139c4565b8d858151811061334657fe5b9050600061356d828d86815181106129b357fe5b905061358e61358782670de0b6b3a76400008d9003612743565b8390611680565b925050506135ae565b8982815181106135a357fe5b602002602001015190505b6135be818c84815181106129b357fe5b8383815181106135ca57fe5b602090810291909101015250600101613519565b5060006135ed8b8b6001611a33565b905060006135fd8c846000611a33565b9050600061360b8284611bcf565b9050613620613619826139c4565b8b906127f5565b9d9c50505050505050505050505050565b600061069f83836001612424565b600080805b86518110156136665761365c87828151811061321557fe5b9150600101613644565b50606085516001600160401b038111801561368057600080fd5b506040519080825280602002602001820160405280156136aa578160200160208202803683370190505b5090506000805b885181101561373e5760006136cc858b848151811061324957fe5b90506137088a83815181106136dd57fe5b6020026020010151612b778b85815181106136f457fe5b60200260200101518d8681518110612a7757fe5b84838151811061371457fe5b6020026020010181815250506137336134bd8286858151811061334657fe5b9250506001016136b1565b50606088516001600160401b038111801561375857600080fd5b50604051908082528060200260200182016040528015613782578160200160208202803683370190505b50905060005b8951811015613843576000838583815181106137a057fe5b602002602001015111156137fc5760006137c561354d86670de0b6b3a7640000610f4f565b905060006137d9828d86815181106129b357fe5b90506137f361358782670de0b6b3a76400008d9003612687565b92505050613813565b89828151811061380857fe5b602002602001015190505b613823818c8481518110612a7757fe5b83838151811061382f57fe5b602090810291909101015250600101613788565b5060006138528b8b6001611a33565b905060006138628c846000611a33565b905060006138708284611bcf565b9050670de0b6b3a76400008111156138a5576138978a670de0b6b3a763ffff198301612687565b97505050505050505061114e565b600097505050505050505061114e565b6000806138c488886001611a33565b905060006138da826131cd876131c7818b611680565b905060006138ea8a8a848b612f94565b905060006139148a8a815181106138fd57fe5b602002602001015183610f4f90919063ffffffff16565b90506000805b8b5181101561393c576139328c828151811061321557fe5b915060010161391a565b50600061394f828d8d8151811061324957fe5b9050600061395c826139c4565b9050600061396a85836127f5565b905060006139788683610f4f565b90506132a96132a283670de0b6b3a76400008e9003612743565b60006139a4631c74c91760e11b610a79565b8214806105d857506139bc6350dd6ed960e01b610a79565b909114919050565b6000670de0b6b3a764000082106139dc5760006105d8565b50670de0b6b3a76400000390565b80356105d88161446e565b600082601f830112613a05578081fd5b8135613a18613a138261444f565b614429565b818152915060208083019084810181840286018201871015613a3957600080fd5b60005b84811015613a5857813584529282019290820190600101613a3c565b505050505092915050565b600082601f830112613a73578081fd5b8151613a81613a138261444f565b818152915060208083019084810181840286018201871015613aa257600080fd5b60005b84811015613a5857815184529282019290820190600101613aa5565b600082601f830112613ad1578081fd5b81356001600160401b03811115613ae6578182fd5b613af9601f8201601f1916602001614429565b9150808252836020828501011115613b1057600080fd5b8060208401602084013760009082016020015292915050565b8035600281106105d857600080fd5b6000610120808385031215613b4b578182fd5b613b5481614429565b915050613b618383613b29565b8152613b7083602084016139ea565b6020820152613b8283604084016139ea565b6040820152606082013560608201526080820135608082015260a082013560a0820152613bb28360c084016139ea565b60c0820152613bc48360e084016139ea565b60e0820152610100808301356001600160401b03811115613be457600080fd5b613bf085828601613ac1565b82840152505092915050565b600060208284031215613c0d578081fd5b813561069f8161446e565b60008060408385031215613c2a578081fd5b8235613c358161446e565b91506020830135613c458161446e565b809150509250929050565b600080600060608486031215613c64578081fd5b8335613c6f8161446e565b92506020840135613c7f8161446e565b929592945050506040919091013590565b600080600080600080600060e0888a031215613caa578283fd5b8735613cb58161446e565b96506020880135613cc58161446e565b95506040880135945060608801359350608088013560ff81168114613ce8578384fd5b9699959850939692959460a0840135945060c09093013592915050565b60008060408385031215613d17578182fd5b8235613d228161446e565b946020939093013593505050565b600080600060608486031215613d44578081fd5b83516001600160401b0380821115613d5a578283fd5b818601915086601f830112613d6d578283fd5b8151613d7b613a138261444f565b80828252602080830192508086018b828387028901011115613d9b578788fd5b8796505b84871015613dc6578051613db28161446e565b845260019690960195928101928101613d9f565b508901519097509350505080821115613ddd578283fd5b50613dea86828701613a63565b925050604084015190509250925092565b600060208284031215613e0c578081fd5b813561069f81614483565b600060208284031215613e28578081fd5b815161069f81614483565b600080600080600080600060e0888a031215613e4d578081fd5b873596506020880135613e5f8161446e565b95506040880135613e6f8161446e565b945060608801356001600160401b0380821115613e8a578283fd5b613e968b838c016139f5565b955060808a0135945060a08a0135935060c08a0135915080821115613eb9578283fd5b50613ec68a828b01613ac1565b91505092959891949750929550565b600060208284031215613ee6578081fd5b81356001600160e01b03198116811461069f578182fd5b600060208284031215613f0e578081fd5b815161069f8161446e565b60008060408385031215613f2b578182fd5b8235613f368161446e565b915060208301356001600160401b03811115613f50578182fd5b613f5c85828601613ac1565b9150509250929050565b600060208284031215613f77578081fd5b815161069f81614491565b600080600060608486031215613f96578081fd5b8351613fa181614491565b60208501519093506001600160401b03811115613fbc578182fd5b613dea86828701613a63565b60008060408385031215613fda578182fd5b8251613fe581614491565b6020939093015192949293505050565b600080600060608486031215614009578081fd5b835161401481614491565b602085015160409095015190969495509392505050565b6000806040838503121561403d578182fd5b825161404881614491565b60208401519092506001600160401b03811115614063578182fd5b613f5c85828601613a63565b60008060008060808587031215614084578182fd5b84356001600160401b038082111561409a578384fd5b6140a688838901613b38565b955060208701359150808211156140bb578384fd5b506140c8878288016139f5565b949794965050505060408301359260600135919050565b6000806000606084860312156140f3578081fd5b83356001600160401b03811115614108578182fd5b61411486828701613b38565b9660208601359650604090950135949350505050565b60006020828403121561413b578081fd5b5035919050565b60008060408385031215614154578182fd5b50508035926020909101359150565b60008060008060808587031215614178578182fd5b84519350602085015192506040850151915060608501516141988161446e565b939692955090935050565b6000815180845260208085019450808401835b838110156141d2578151875295820195908201906001016141b6565b509495945050505050565b60008151808452815b81811015614202576020818501810151868301820152016141e6565b818111156142135782602083870101525b50601f01601f19169290920160200192915050565b9182526001600160e01b031916602082015260240190565b6000828483379101908152919050565b61190160f01b81526002810192909252602282015260420190565b6001600160a01b0391909116815260200190565b60006020825261069f60208301846141a3565b6000604082526142a560408301856141a3565b828103602084015261114e81856141a3565b901515815260200190565b92151583526020830191909152604082015260600190565b90815260200190565b9283526001600160a01b03918216602084015216604082015260600190565b9586526001600160a01b0394851660208701529290931660408501526060840152608083019190915260a082015260c00190565b9485526020850193909352604084019190915260608301526001600160a01b0316608082015260a00190565b60008382526040602083015261052860408301846141dd565b9182526001600160a01b0316602082015260400190565b93845260ff9290921660208401526040830152606082015260800190565b60006020825261069f60208301846141dd565b60008382526040602083015261052860408301846141a3565b9283529015156020830152604082015260600190565b918252602082015260400190565b93845260208401929092526040830152606082015260800190565b60ff91909116815260200190565b6040518181016001600160401b038111828210171561444757600080fd5b604052919050565b60006001600160401b03821115614464578081fd5b5060209081020190565b6001600160a01b03811681146105ef57600080fd5b80151581146105ef57600080fd5b600381106105ef57600080fdfea26469706673582212208719e4419e7b1104af1a8a1a1b5053fd81bc93a27b9976fff2e53cebbfa68bb964736f6c63430007010033",
  "devdoc": {
    "details": "TetuRelayedStablePool is a extension of standard Balancer's stable pool with restricted joinPool and exitPool      Those methods should be called by the Relayer only to allow usage of Asset managers (rebalancing logic)",
    "kind": "dev",
    "methods": {
      "DOMAIN_SEPARATOR()": {
        "details": "See {IERC20Permit-DOMAIN_SEPARATOR}."
      },
      "allowance(address,address)": {
        "details": "See {IERC20-allowance}."
      },
      "approve(address,uint256)": {
        "details": "See {IERC20-approve}. Requirements: - `spender` cannot be the zero address."
      },
      "balanceOf(address)": {
        "details": "See {IERC20-balanceOf}."
      },
      "decimals()": {
        "details": "Returns the number of decimals used to get its user representation. For example, if `decimals` equals `2`, a balance of `505` tokens should be displayed to a user as `5,05` (`505 / 10 ** 2`). Tokens usually opt for a value of 18, imitating the relationship between Ether and Wei. This is the value {ERC20} uses, unless {_setupDecimals} is called. NOTE: This information is only used for _display_ purposes: it in no way affects any of the arithmetic of the contract, including {IERC20-balanceOf} and {IERC20-transfer}."
      },
      "decreaseAllowance(address,uint256)": {
        "details": "Override to allow decreasing allowance by more than the current amount (setting it to zero)"
      },
      "getActionId(bytes4)": {
        "details": "Returns the action identifier associated with the external function described by `selector`."
      },
      "getPausedState()": {
        "details": "Returns the current contract pause status, as well as the end times of the Pause Window and Buffer Period."
      },
      "getRate()": {
        "details": "This function returns the appreciation of one BPT relative to the underlying tokens. This starts at 1 when the pool is created and grows over time"
      },
      "increaseAllowance(address,uint256)": {
        "details": "Atomically increases the allowance granted to `spender` by the caller. This is an alternative to {approve} that can be used as a mitigation for problems described in {IERC20-approve}. Emits an {Approval} event indicating the updated allowance. Requirements: - `spender` cannot be the zero address."
      },
      "name()": {
        "details": "Returns the name of the token."
      },
      "nonces(address)": {
        "details": "See {IERC20Permit-nonces}."
      },
      "onExitPool(bytes32,address,address,uint256[],uint256,uint256,bytes)": {
        "details": "Called by the Vault when a user calls `IVault.exitPool` to remove liquidity from this Pool. Returns how many tokens the Vault should deduct from the Pool's balances, as well as the amount of protocol fees the Pool owes to the Vault. The Vault will then take tokens from the Pool's balances and send them to `recipient`, as well as collect the reported amount in protocol fees, which the Pool should calculate based on `protocolSwapFeePercentage`. Protocol fees are charged on exit events to guarantee that users exiting the Pool have paid their share. `sender` is the account performing the exit (typically the pool shareholder), and `recipient` is the account to which the Vault will send the proceeds. `balances` contains the total token balances for each token the Pool registered in the Vault, in the same order that `IVault.getPoolTokens` would return. `lastChangeBlock` is the last block in which *any* of the Pool's registered tokens last changed its total balance. `userData` contains any pool-specific instructions needed to perform the calculations, such as the type of exit (e.g., proportional given an amount of pool shares, single-asset, multi-asset, etc.) Contracts implementing this function should check that the caller is indeed the Vault before performing any state-changing operations, such as burning pool shares."
      },
      "onJoinPool(bytes32,address,address,uint256[],uint256,uint256,bytes)": {
        "details": "Called by the Vault when a user calls `IVault.joinPool` to add liquidity to this Pool. Returns how many of each registered token the user should provide, as well as the amount of protocol fees the Pool owes to the Vault. The Vault will then take tokens from `sender` and add them to the Pool's balances, as well as collect the reported amount in protocol fees, which the pool should calculate based on `protocolSwapFeePercentage`. Protocol fees are reported and charged on join events so that the Pool is free of debt whenever new users join. `sender` is the account performing the join (from which tokens will be withdrawn), and `recipient` is the account designated to receive any benefits (typically pool shares). `balances` contains the total balances for each token the Pool registered in the Vault, in the same order that `IVault.getPoolTokens` would return. `lastChangeBlock` is the last block in which *any* of the Pool's registered tokens last changed its total balance. `userData` contains any pool-specific instructions needed to perform the calculations, such as the type of join (e.g., proportional given an amount of pool shares, single-asset, multi-asset, etc.) Contracts implementing this function should check that the caller is indeed the Vault before performing any state-changing operations, such as minting pool shares."
      },
      "permit(address,address,uint256,uint256,uint8,bytes32,bytes32)": {
        "details": "See {IERC20Permit-permit}."
      },
      "queryExit(bytes32,address,address,uint256[],uint256,uint256,bytes)": {
        "details": "Returns the amount of BPT that would be burned from `sender` if the `onExitPool` hook were called by the Vault with the same arguments, along with the number of tokens `recipient` would receive. This function is not meant to be called directly, but rather from a helper contract that fetches current Vault data, such as the protocol swap fee percentage and Pool balances. Like `IVault.queryBatchSwap`, this function is not view due to internal implementation details: the caller must explicitly use eth_call instead of eth_sendTransaction."
      },
      "queryJoin(bytes32,address,address,uint256[],uint256,uint256,bytes)": {
        "details": "Returns the amount of BPT that would be granted to `recipient` if the `onJoinPool` hook were called by the Vault with the same arguments, along with the number of tokens `sender` would have to supply. This function is not meant to be called directly, but rather from a helper contract that fetches current Vault data, such as the protocol swap fee percentage and Pool balances. Like `IVault.queryBatchSwap`, this function is not view due to internal implementation details: the caller must explicitly use eth_call instead of eth_sendTransaction."
      },
      "startAmplificationParameterUpdate(uint256,uint256)": {
        "details": "Begins changing the amplification parameter to `rawEndValue` over time. The value will change linearly until `endTime` is reached, when it will be `rawEndValue`. NOTE: Internally, the amplification parameter is represented using higher precision. The values returned by `getAmplificationParameter` have to be corrected to account for this when comparing to `rawEndValue`."
      },
      "stopAmplificationParameterUpdate()": {
        "details": "Stops the amplification parameter change process, keeping the current value."
      },
      "symbol()": {
        "details": "Returns the symbol of the token, usually a shorter version of the name."
      },
      "totalSupply()": {
        "details": "See {IERC20-totalSupply}."
      },
      "transfer(address,uint256)": {
        "details": "See {IERC20-transfer}. Requirements: - `recipient` cannot be the zero address. - the caller must have a balance of at least `amount`."
      },
      "transferFrom(address,address,uint256)": {
        "details": "Override to allow for 'infinite allowance' and let the token owner use `transferFrom` with no self-allowance"
      }
    },
    "title": "TetuRelayedStablePool",
    "version": 1
  },
  "userdoc": {
    "kind": "user",
    "methods": {},
    "version": 1
  },
  "storageLayout": {
    "storage": [
      {
        "astId": 11930,
        "contract": "contracts/pool_stable/TetuRelayedStablePool.sol:TetuRelayedStablePool",
        "label": "_balances",
        "offset": 0,
        "slot": "0",
        "type": "t_mapping(t_address,t_uint256)"
      },
      {
        "astId": 11936,
        "contract": "contracts/pool_stable/TetuRelayedStablePool.sol:TetuRelayedStablePool",
        "label": "_allowances",
        "offset": 0,
        "slot": "1",
        "type": "t_mapping(t_address,t_mapping(t_address,t_uint256))"
      },
      {
        "astId": 11938,
        "contract": "contracts/pool_stable/TetuRelayedStablePool.sol:TetuRelayedStablePool",
        "label": "_totalSupply",
        "offset": 0,
        "slot": "2",
        "type": "t_uint256"
      },
      {
        "astId": 11940,
        "contract": "contracts/pool_stable/TetuRelayedStablePool.sol:TetuRelayedStablePool",
        "label": "_name",
        "offset": 0,
        "slot": "3",
        "type": "t_string_storage"
      },
      {
        "astId": 11942,
        "contract": "contracts/pool_stable/TetuRelayedStablePool.sol:TetuRelayedStablePool",
        "label": "_symbol",
        "offset": 0,
        "slot": "4",
        "type": "t_string_storage"
      },
      {
        "astId": 11944,
        "contract": "contracts/pool_stable/TetuRelayedStablePool.sol:TetuRelayedStablePool",
        "label": "_decimals",
        "offset": 0,
        "slot": "5",
        "type": "t_uint8"
      },
      {
        "astId": 12409,
        "contract": "contracts/pool_stable/TetuRelayedStablePool.sol:TetuRelayedStablePool",
        "label": "_nonces",
        "offset": 0,
        "slot": "6",
        "type": "t_mapping(t_address,t_uint256)"
      },
      {
        "astId": 8475,
        "contract": "contracts/pool_stable/TetuRelayedStablePool.sol:TetuRelayedStablePool",
        "label": "_paused",
        "offset": 0,
        "slot": "7",
        "type": "t_bool"
      },
      {
        "astId": 2070,
        "contract": "contracts/pool_stable/TetuRelayedStablePool.sol:TetuRelayedStablePool",
        "label": "_miscData",
        "offset": 0,
        "slot": "8",
        "type": "t_bytes32"
      },
      {
        "astId": 21770,
        "contract": "contracts/pool_stable/TetuRelayedStablePool.sol:TetuRelayedStablePool",
        "label": "_packedAmplificationData",
        "offset": 0,
        "slot": "9",
        "type": "t_bytes32"
      },
      {
        "astId": 21808,
        "contract": "contracts/pool_stable/TetuRelayedStablePool.sol:TetuRelayedStablePool",
        "label": "_lastInvariant",
        "offset": 0,
        "slot": "10",
        "type": "t_uint256"
      },
      {
        "astId": 21810,
        "contract": "contracts/pool_stable/TetuRelayedStablePool.sol:TetuRelayedStablePool",
        "label": "_lastInvariantAmp",
        "offset": 0,
        "slot": "11",
        "type": "t_uint256"
      }
    ],
    "types": {
      "t_address": {
        "encoding": "inplace",
        "label": "address",
        "numberOfBytes": "20"
      },
      "t_bool": {
        "encoding": "inplace",
        "label": "bool",
        "numberOfBytes": "1"
      },
      "t_bytes32": {
        "encoding": "inplace",
        "label": "bytes32",
        "numberOfBytes": "32"
      },
      "t_mapping(t_address,t_mapping(t_address,t_uint256))": {
        "encoding": "mapping",
        "key": "t_address",
        "label": "mapping(address => mapping(address => uint256))",
        "numberOfBytes": "32",
        "value": "t_mapping(t_address,t_uint256)"
      },
      "t_mapping(t_address,t_uint256)": {
        "encoding": "mapping",
        "key": "t_address",
        "label": "mapping(address => uint256)",
        "numberOfBytes": "32",
        "value": "t_uint256"
      },
      "t_string_storage": {
        "encoding": "bytes",
        "label": "string",
        "numberOfBytes": "32"
      },
      "t_uint256": {
        "encoding": "inplace",
        "label": "uint256",
        "numberOfBytes": "32"
      },
      "t_uint8": {
        "encoding": "inplace",
        "label": "uint8",
        "numberOfBytes": "1"
      }
    }
  }
}