{
  "address": "0x9aE258231DC64551ab3b268251FB5899eF3089eB",
  "abi": [
    {
      "inputs": [
        {
          "internalType": "contract IBVault",
          "name": "balancerVault_",
          "type": "address"
        },
        {
          "internalType": "address",
          "name": "tetuVault_",
          "type": "address"
        },
        {
          "internalType": "address",
          "name": "underlying_",
          "type": "address"
        }
      ],
      "stateMutability": "nonpayable",
      "type": "constructor"
    },
    {
      "anonymous": false,
      "inputs": [
        {
          "indexed": false,
          "internalType": "bytes32",
          "name": "poolId",
          "type": "bytes32"
        }
      ],
      "name": "AssetManagerInitialized",
      "type": "event"
    },
    {
      "anonymous": false,
      "inputs": [
        {
          "indexed": false,
          "internalType": "bytes32",
          "name": "poolId",
          "type": "bytes32"
        }
      ],
      "name": "CapitalIn",
      "type": "event"
    },
    {
      "anonymous": false,
      "inputs": [
        {
          "indexed": false,
          "internalType": "bytes32",
          "name": "poolId",
          "type": "bytes32"
        }
      ],
      "name": "CapitalOut",
      "type": "event"
    },
    {
      "anonymous": false,
      "inputs": [
        {
          "indexed": false,
          "internalType": "uint256",
          "name": "amount",
          "type": "uint256"
        }
      ],
      "name": "Devested",
      "type": "event"
    },
    {
      "anonymous": false,
      "inputs": [
        {
          "indexed": false,
          "internalType": "uint256",
          "name": "amount",
          "type": "uint256"
        }
      ],
      "name": "Invested",
      "type": "event"
    },
    {
      "anonymous": false,
      "inputs": [
        {
          "indexed": false,
          "internalType": "uint64",
          "name": "targetPercentage",
          "type": "uint64"
        },
        {
          "indexed": false,
          "internalType": "uint64",
          "name": "lowerCriticalPercentage",
          "type": "uint64"
        },
        {
          "indexed": false,
          "internalType": "uint64",
          "name": "upperCriticalPercentage",
          "type": "uint64"
        }
      ],
      "name": "InvestmentConfigSet",
      "type": "event"
    },
    {
      "anonymous": false,
      "inputs": [
        {
          "indexed": false,
          "internalType": "bytes32",
          "name": "poolId",
          "type": "bytes32"
        },
        {
          "indexed": false,
          "internalType": "uint256",
          "name": "newAUM",
          "type": "uint256"
        }
      ],
      "name": "PoolBalanceUpdated",
      "type": "event"
    },
    {
      "anonymous": false,
      "inputs": [
        {
          "indexed": false,
          "internalType": "bytes32",
          "name": "poolId",
          "type": "bytes32"
        }
      ],
      "name": "Rebalance",
      "type": "event"
    },
    {
      "inputs": [
        {
          "internalType": "uint256",
          "name": "aum",
          "type": "uint256"
        }
      ],
      "name": "_getPoolBalances",
      "outputs": [
        {
          "internalType": "uint256",
          "name": "poolCash",
          "type": "uint256"
        },
        {
          "internalType": "uint256",
          "name": "poolManaged",
          "type": "uint256"
        }
      ],
      "stateMutability": "view",
      "type": "function"
    },
    {
      "inputs": [],
      "name": "balancerVault",
      "outputs": [
        {
          "internalType": "contract IBVault",
          "name": "",
          "type": "address"
        }
      ],
      "stateMutability": "view",
      "type": "function"
    },
    {
      "inputs": [
        {
          "internalType": "bytes32",
          "name": "pId",
          "type": "bytes32"
        },
        {
          "internalType": "uint256",
          "name": "amount",
          "type": "uint256"
        }
      ],
      "name": "capitalOut",
      "outputs": [],
      "stateMutability": "nonpayable",
      "type": "function"
    },
    {
      "inputs": [],
      "name": "claimRewards",
      "outputs": [],
      "stateMutability": "nonpayable",
      "type": "function"
    },
    {
      "inputs": [
        {
          "internalType": "bytes32",
          "name": "pId",
          "type": "bytes32"
        }
      ],
      "name": "getAUM",
      "outputs": [
        {
          "internalType": "uint256",
          "name": "",
          "type": "uint256"
        }
      ],
      "stateMutability": "view",
      "type": "function"
    },
    {
      "inputs": [
        {
          "internalType": "bytes32",
          "name": "pId",
          "type": "bytes32"
        }
      ],
      "name": "getInvestmentConfig",
      "outputs": [
        {
          "components": [
            {
              "internalType": "uint64",
              "name": "targetPercentage",
              "type": "uint64"
            },
            {
              "internalType": "uint64",
              "name": "upperCriticalPercentage",
              "type": "uint64"
            },
            {
              "internalType": "uint64",
              "name": "lowerCriticalPercentage",
              "type": "uint64"
            }
          ],
          "internalType": "struct IAssetManagerBase.InvestmentConfig",
          "name": "",
          "type": "tuple"
        }
      ],
      "stateMutability": "view",
      "type": "function"
    },
    {
      "inputs": [],
      "name": "getPoolAddress",
      "outputs": [
        {
          "internalType": "address",
          "name": "addr",
          "type": "address"
        }
      ],
      "stateMutability": "view",
      "type": "function"
    },
    {
      "inputs": [
        {
          "internalType": "bytes32",
          "name": "pId",
          "type": "bytes32"
        }
      ],
      "name": "getPoolBalances",
      "outputs": [
        {
          "internalType": "uint256",
          "name": "poolCash",
          "type": "uint256"
        },
        {
          "internalType": "uint256",
          "name": "poolManaged",
          "type": "uint256"
        }
      ],
      "stateMutability": "view",
      "type": "function"
    },
    {
      "inputs": [],
      "name": "getToken",
      "outputs": [
        {
          "internalType": "contract IERC20",
          "name": "",
          "type": "address"
        }
      ],
      "stateMutability": "view",
      "type": "function"
    },
    {
      "inputs": [
        {
          "internalType": "bytes32",
          "name": "pId",
          "type": "bytes32"
        }
      ],
      "name": "initialize",
      "outputs": [],
      "stateMutability": "nonpayable",
      "type": "function"
    },
    {
      "inputs": [
        {
          "internalType": "bytes32",
          "name": "pId",
          "type": "bytes32"
        }
      ],
      "name": "maxInvestableBalance",
      "outputs": [
        {
          "internalType": "int256",
          "name": "",
          "type": "int256"
        }
      ],
      "stateMutability": "view",
      "type": "function"
    },
    {
      "inputs": [],
      "name": "poolId",
      "outputs": [
        {
          "internalType": "bytes32",
          "name": "",
          "type": "bytes32"
        }
      ],
      "stateMutability": "view",
      "type": "function"
    },
    {
      "inputs": [
        {
          "internalType": "bytes32",
          "name": "pId",
          "type": "bytes32"
        },
        {
          "internalType": "bool",
          "name": "force",
          "type": "bool"
        }
      ],
      "name": "rebalance",
      "outputs": [],
      "stateMutability": "nonpayable",
      "type": "function"
    },
    {
      "inputs": [
        {
          "internalType": "bytes32",
          "name": "pId",
          "type": "bytes32"
        },
        {
          "internalType": "bytes",
          "name": "rawConfig",
          "type": "bytes"
        }
      ],
      "name": "setConfig",
      "outputs": [],
      "stateMutability": "nonpayable",
      "type": "function"
    },
    {
      "inputs": [
        {
          "internalType": "uint256",
          "name": "cash",
          "type": "uint256"
        },
        {
          "internalType": "uint256",
          "name": "managed",
          "type": "uint256"
        }
      ],
      "name": "shouldRebalance",
      "outputs": [
        {
          "internalType": "bool",
          "name": "",
          "type": "bool"
        }
      ],
      "stateMutability": "view",
      "type": "function"
    },
    {
      "inputs": [],
      "name": "tetuVault",
      "outputs": [
        {
          "internalType": "address",
          "name": "",
          "type": "address"
        }
      ],
      "stateMutability": "view",
      "type": "function"
    },
    {
      "inputs": [],
      "name": "underlying",
      "outputs": [
        {
          "internalType": "contract IERC20",
          "name": "",
          "type": "address"
        }
      ],
      "stateMutability": "view",
      "type": "function"
    },
    {
      "inputs": [
        {
          "internalType": "bytes32",
          "name": "pId",
          "type": "bytes32"
        }
      ],
      "name": "updateBalanceOfPool",
      "outputs": [],
      "stateMutability": "nonpayable",
      "type": "function"
    }
  ],
  "transactionHash": "0x6b6f64b2875c7bac9b58059f2129273f255203f310451e0c264c8a0d6084cf95",
  "args": [
    "0xBA12222222228d8Ba445958a75a0704d566BF2C8",
    "0xb4607D4B8EcFafd063b3A3563C02801c4C7366B2",
    "0x8f3Cf7ad23Cd3CaDbD9735AFf958023239c6A063"
  ],
  "numDeployments": 1,
  "solcInputHash": "fe38d9136e7a4282eee5c8ab30475865",
  "bytecode": "0x60e06040523480156200001157600080fd5b5060405162002ba838038062002ba8833981016040819052620000349162000671565b82816001600160a01b0381166200007f5760405162461bcd60e51b815260206004820152600a6024820152693d32b937903a37b5b2b760b11b60448201526064015b60405180910390fd5b6001600160a01b038216620000d75760405162461bcd60e51b815260206004820152601360248201527f7a65726f2062616c616e636572207661756c7400000000000000000000000000604482015260640162000076565b620000fe82600019836001600160a01b0316620001a060201b62000dd6179092919060201c565b6001600160601b0319606092831b8116608052911b1660a0526001600160a01b038216620001615760405162461bcd60e51b815260206004820152600f60248201526e1e995c9bc81d195d1d481d985d5b1d608a1b604482015260640162000076565b606082901b6001600160601b03191660c052620001976001600160a01b038216836000196200030d602090811b62000f2d17901c565b5050506200079d565b8015806200022e5750604051636eb1769f60e11b81523060048201526001600160a01b03838116602483015284169063dd62ed3e9060440160206040518083038186803b158015620001f157600080fd5b505afa15801562000206573d6000803e3d6000fd5b505050506040513d601f19601f820116820180604052508101906200022c9190620006c4565b155b620002a25760405162461bcd60e51b815260206004820152603660248201527f5361666545524332303a20617070726f76652066726f6d206e6f6e2d7a65726f60448201527f20746f206e6f6e2d7a65726f20616c6c6f77616e636500000000000000000000606482015260840162000076565b6040516001600160a01b0383166024820152604481018290526200030890849063095ea7b360e01b906064015b60408051808303601f190181529190526020810180516001600160e01b0319939093166001600160e01b0393841617905290620003dc16565b505050565b604051636eb1769f60e11b81523060048201526001600160a01b038381166024830152600091839186169063dd62ed3e9060440160206040518083038186803b1580156200035a57600080fd5b505afa1580156200036f573d6000803e3d6000fd5b505050506040513d601f19601f82011682018060405250810190620003959190620006c4565b620003a1919062000730565b6040516001600160a01b038516602482015260448101829052909150620003d690859063095ea7b360e01b90606401620002cf565b50505050565b600062000438826040518060400160405280602081526020017f5361666545524332303a206c6f772d6c6576656c2063616c6c206661696c6564815250856001600160a01b0316620004ba60201b62000ff4179092919060201c565b8051909150156200030857808060200190518101906200045991906200064f565b620003085760405162461bcd60e51b815260206004820152602a60248201527f5361666545524332303a204552433230206f7065726174696f6e20646964206e6044820152691bdd081cdd58d8d9595960b21b606482015260840162000076565b6060620004cb8484600085620004d5565b90505b9392505050565b606082471015620005385760405162461bcd60e51b815260206004820152602660248201527f416464726573733a20696e73756666696369656e742062616c616e636520666f6044820152651c8818d85b1b60d21b606482015260840162000076565b6001600160a01b0385163b620005915760405162461bcd60e51b815260206004820152601d60248201527f416464726573733a2063616c6c20746f206e6f6e2d636f6e7472616374000000604482015260640162000076565b600080866001600160a01b03168587604051620005af9190620006dd565b60006040518083038185875af1925050503d8060008114620005ee576040519150601f19603f3d011682016040523d82523d6000602084013e620005f3565b606091505b5090925090506200060682828662000611565b979650505050505050565b6060831562000622575081620004ce565b825115620006335782518084602001fd5b8160405162461bcd60e51b8152600401620000769190620006fb565b60006020828403121562000661578081fd5b81518015158114620004ce578182fd5b60008060006060848603121562000686578182fd5b8351620006938162000784565b6020850151909350620006a68162000784565b6040850151909250620006b98162000784565b809150509250925092565b600060208284031215620006d6578081fd5b5051919050565b60008251620006f181846020870162000755565b9190910192915050565b60208152600082518060208401526200071c81604085016020870162000755565b601f01601f19169190910160400192915050565b600082198211156200075057634e487b7160e01b81526011600452602481fd5b500190565b60005b838110156200077257818101518382015260200162000758565b83811115620003d65750506000910152565b6001600160a01b03811681146200079a57600080fd5b50565b60805160601c60a05160601c60c05160601c6123316200087760003960008181610161015281816110250152818161162a015281816116bb015281816117660152818161181e01528181611c0001528181611cb30152611d300152600081816101cc015281816102320152818161035a0152818161046501528181610cd701528181611136015281816111b00152818161158a0152818161189b01528181611a470152611ac80152600081816101950152818161032d0152818161052f01528181610ca5015281816112240152611b3c01526123316000f3fe608060405234801561001057600080fd5b50600436106101155760003560e01c80634c936d8a116100a25780639498bd71116100715780639498bd71146102ac5780639c64ad30146102bf578063dc99fc21146102e2578063ea748923146102f5578063f586c6d91461030857600080fd5b80634c936d8a1461021a5780636f307dc31461022d57806376bad52914610254578063785e4ad81461026757600080fd5b806318e736d4116100e957806318e736d4146101b757806321df0da7146101ca5780632b13a509146101f0578063372500ab1461015a5780633e0dc34e1461020357600080fd5b8062e3de9f1461011a5780630b5ff6b9146101475780630d20bfa81461015c578063158274a514610190575b600080fd5b61012d610128366004611e8d565b610310565b604080519283526020830191909152015b60405180910390f35b61015a610155366004611e8d565b6103ee565b005b6101837f000000000000000000000000000000000000000000000000000000000000000081565b60405161013e9190612087565b6101837f000000000000000000000000000000000000000000000000000000000000000081565b61015a6101c5366004611ed4565b6105da565b7f0000000000000000000000000000000000000000000000000000000000000000610183565b61015a6101fe366004611f6c565b6108be565b61020c60005481565b60405190815260200161013e565b61015a610228366004611ea5565b6109d5565b6101837f000000000000000000000000000000000000000000000000000000000000000081565b61012d610262366004611e8d565b610a35565b61027a610275366004611e8d565b610a70565b6040805182516001600160401b039081168252602080850151821690830152928201519092169082015260600161013e565b61015a6102ba366004611e8d565b610aee565b6102d26102cd366004611f6c565b610bb6565b604051901515815260200161013e565b61020c6102f0366004611e8d565b610c3e565b61020c610303366004611e8d565b610c71565b610183610dbb565b6000805460405163160bf1c960e31b815282916001600160a01b037f0000000000000000000000000000000000000000000000000000000000000000169163b05f8e4891610394917f0000000000000000000000000000000000000000000000000000000000000000906004019182526001600160a01b0316602082015260400190565b60806040518083038186803b1580156103ac57600080fd5b505afa1580156103c0573d6000803e3d6000fd5b505050506040513d601f19601f820116820180604052508101906103e4919061202b565b5091959350505050565b8060005481146104195760405162461bcd60e51b815260040161041090612157565b60405180910390fd5b600061042361100b565b90506000604051806080016040528060028081111561045257634e487b7160e01b600052602160045260246000fd5b8152602081018690526001600160a01b037f00000000000000000000000000000000000000000000000000000000000000001660408201526060018390529050600060016040519080825280602002602001820160405280156104e857816020015b6040805160808101825260008082526020808301829052928201819052606082015282526000199092019101816104b45790505b509050818160008151811061050d57634e487b7160e01b600052603260045260246000fd5b6020908102919091010152604051637362304960e11b81526001600160a01b037f0000000000000000000000000000000000000000000000000000000000000000169063e6c460929061056490849060040161209b565b600060405180830381600087803b15801561057e57600080fd5b505af1158015610592573d6000803e3d6000fd5b505060005460408051918252602082018790527f2a104ace9476372e55280f5999d12c94919e02ca152819ed82f536506e1022df935001905060405180910390a15050505050565b8160005481146105fc5760405162461bcd60e51b815260040161041090612157565b610604610dbb565b6001600160a01b0316336001600160a01b03161461065c5760405162461bcd60e51b815260206004820152601560248201527413db9b1e4818d85b1b18589b1948189e481c1bdbdb605a1b6044820152606401610410565b6000828060200190518101906106729190611fa9565b9050670de0b6b3a764000081602001516001600160401b031611156106f95760405162461bcd60e51b815260206004820152603760248201527f557070657220637269746963616c206c6576656c206d757374206265206c657360448201527673207468616e206f7220657175616c20746f203130302560481b6064820152608401610410565b80602001516001600160401b031681600001516001600160401b031611156107895760405162461bcd60e51b815260206004820152603960248201527f546172676574206d757374206265206c657373207468616e206f72206571756160448201527f6c20746f20757070657220637269746963616c206c6576656c000000000000006064820152608401610410565b80600001516001600160401b031681604001516001600160401b031611156108195760405162461bcd60e51b815260206004820152603960248201527f4c6f77657220637269746963616c206c6576656c206d757374206265206c657360448201527f73207468616e206f7220657175616c20746f20746172676574000000000000006064820152608401610410565b8051600180546020808501516040808701516001600160401b039687166fffffffffffffffffffffffffffffffff199095168517600160401b9388169384021767ffffffffffffffff60801b1916600160801b9790911696870217909455835192835290820193909352908101919091527f9136958b838ab10ef4f57ddbd5342991e17e04de46da3d18b336828a21a7890e906060015b60405180910390a150505050565b8160005481146108e05760405162461bcd60e51b815260040161041090612157565b6108e8610dbb565b6001600160a01b031663bdc503736040518163ffffffff1660e01b815260040160206040518083038186803b15801561092057600080fd5b505afa158015610934573d6000803e3d6000fd5b505050506040513d601f19601f820116820180604052508101906109589190611f8d565b6001600160a01b0316336001600160a01b0316146109c75760405162461bcd60e51b815260206004820152602660248201527f4f6e6c792063616c6c61626c6520627920617574686f72697a656420726562616044820152653630b731b2b960d11b6064820152608401610410565b6109d0826110af565b505050565b8160005481146109f75760405162461bcd60e51b815260040161041090612157565b8115610a05576109d0611291565b600080610a1361012861100b565b91509150610a218282610bb6565b15610a2e57610a2e611291565b5050505050565b600080826000548114610a5a5760405162461bcd60e51b815260040161041090612157565b610a6561012861100b565b909590945092505050565b6040805160608101825260008082526020820181905291810191909152816000548114610aaf5760405162461bcd60e51b815260040161041090612157565b5050604080516060810182526001546001600160401b038082168352600160401b820481166020840152600160801b9091041691810191909152919050565b60005415610b345760405162461bcd60e51b8152602060048201526013602482015272105b1c9958591e481a5b9a5d1a585b1a5cd959606a1b6044820152606401610410565b80610b7b5760405162461bcd60e51b8152602060048201526017602482015276506f6f6c2069642063616e6e6f7420626520656d70747960481b6044820152606401610410565b60008190556040518181527f9964d677708e2e464238d06fe701af03a050a2d60fbf1e317edcdd0e80df032c9060200160405180910390a150565b600080610bc383856121d0565b610bd5670de0b6b3a764000086612208565b610bdf91906121e8565b604080516060810182526001546001600160401b038082168352600160401b8204811660208401819052600160801b9092041692820192909252919250821180610c35575080604001516001600160401b031682105b95945050505050565b6000816000548114610c625760405162461bcd60e51b815260040161041090612157565b610c6a61100b565b9392505050565b6000816000548114610c955760405162461bcd60e51b815260040161041090612157565b6000610c9f61100b565b905060007f00000000000000000000000000000000000000000000000000000000000000006001600160a01b031663b05f8e486000547f00000000000000000000000000000000000000000000000000000000000000006040518363ffffffff1660e01b8152600401610d259291909182526001600160a01b0316602082015260400190565b60806040518083038186803b158015610d3d57600080fd5b505afa158015610d51573d6000803e3d6000fd5b505050506040513d601f19601f82011682018060405250810190610d75919061202b565b50506001549192508391670de0b6b3a764000091506001600160401b0316610d9d83856121d0565b610da79190612208565b610db191906121e8565b610c359190612227565b600080548190610dd090600160601b906121e8565b92915050565b801580610e5f5750604051636eb1769f60e11b81523060048201526001600160a01b03838116602483015284169063dd62ed3e9060440160206040518083038186803b158015610e2557600080fd5b505afa158015610e39573d6000803e3d6000fd5b505050506040513d601f19601f82011682018060405250810190610e5d9190612013565b155b610eca5760405162461bcd60e51b815260206004820152603660248201527f5361666545524332303a20617070726f76652066726f6d206e6f6e2d7a65726f60448201527520746f206e6f6e2d7a65726f20616c6c6f77616e636560501b6064820152608401610410565b6040516001600160a01b0383166024820152604481018290526109d090849063095ea7b360e01b906064015b60408051601f198184030181529190526020810180516001600160e01b03166001600160e01b031990931692909217909152611382565b604051636eb1769f60e11b81523060048201526001600160a01b038381166024830152600091839186169063dd62ed3e9060440160206040518083038186803b158015610f7957600080fd5b505afa158015610f8d573d6000803e3d6000fd5b505050506040513d601f19601f82011682018060405250810190610fb19190612013565b610fbb91906121d0565b6040516001600160a01b038516602482015260448101829052909150610fee90859063095ea7b360e01b90606401610ef6565b50505050565b60606110038484600085611454565b949350505050565b604051638cb1d67f60e01b81526000906001600160a01b037f00000000000000000000000000000000000000000000000000000000000000001690638cb1d67f9061105a903090600401612087565b60206040518083038186803b15801561107257600080fd5b505afa158015611086573d6000803e3d6000fd5b505050506040513d601f19601f820116820180604052508101906110aa9190612013565b905090565b60006110b961100b565b905060006110c683611585565b6040805160028082526060820190925291925060009190816020015b6040805160808101825260008082526020808301829052928201819052606082015282526000199092019101816110e2579050506040805160808101909152909150806002815260200160005481526020017f00000000000000000000000000000000000000000000000000000000000000006001600160a01b03168152602001848152508160008151811061118857634e487b7160e01b600052603260045260246000fd5b60209081029190910101526040805160808101909152806001815260200160005481526020017f00000000000000000000000000000000000000000000000000000000000000006001600160a01b03168152602001838152508160018151811061120257634e487b7160e01b600052603260045260246000fd5b6020908102919091010152604051637362304960e11b81526001600160a01b037f0000000000000000000000000000000000000000000000000000000000000000169063e6c460929061125990849060040161209b565b600060405180830381600087803b15801561127357600080fd5b505af1158015611287573d6000803e3d6000fd5b5050505050505050565b60008061129f61012861100b565b604080516060810182526001546001600160401b03808216808452600160401b830482166020850152600160801b9092041692820192909252929450909250600090670de0b6b3a7640000906112f585876121d0565b6112ff9190612208565b61130991906121e8565b90508281111561133057600061131f8483612266565b905061132a816119db565b5061134f565b600061133c8285612266565b9050801561134d5761134d816110af565b505b7f37f8042257f6b4d65b9614deb7792e5b374db2fdcd1983bf8a1247a8a788af5c6000546040516108b091815260200190565b60006113d7826040518060400160405280602081526020017f5361666545524332303a206c6f772d6c6576656c2063616c6c206661696c6564815250856001600160a01b0316610ff49092919063ffffffff16565b8051909150156109d057808060200190518101906113f59190611e71565b6109d05760405162461bcd60e51b815260206004820152602a60248201527f5361666545524332303a204552433230206f7065726174696f6e20646964206e6044820152691bdd081cdd58d8d9595960b21b6064820152608401610410565b6060824710156114b55760405162461bcd60e51b815260206004820152602660248201527f416464726573733a20696e73756666696369656e742062616c616e636520666f6044820152651c8818d85b1b60d21b6064820152608401610410565b6001600160a01b0385163b61150c5760405162461bcd60e51b815260206004820152601d60248201527f416464726573733a2063616c6c20746f206e6f6e2d636f6e74726163740000006044820152606401610410565b600080866001600160a01b03168587604051611528919061206b565b60006040518083038185875af1925050503d8060008114611565576040519150601f19603f3d011682016040523d82523d6000602084013e61156a565b606091505b509150915061157a828286611bac565b979650505050505050565b6000807f00000000000000000000000000000000000000000000000000000000000000006001600160a01b03166370a08231306040518263ffffffff1660e01b81526004016115d49190612087565b60206040518083038186803b1580156115ec57600080fd5b505afa158015611600573d6000803e3d6000fd5b505050506040513d601f19601f820116820180604052508101906116249190612013565b905060007f00000000000000000000000000000000000000000000000000000000000000006001600160a01b03166377c7b8fc6040518163ffffffff1660e01b815260040160206040518083038186803b15801561168157600080fd5b505afa158015611695573d6000803e3d6000fd5b505050506040513d601f19601f820116820180604052508101906116b99190612013565b7f00000000000000000000000000000000000000000000000000000000000000006001600160a01b03166353ceb01c6040518163ffffffff1660e01b815260040160206040518083038186803b15801561171257600080fd5b505afa158015611726573d6000803e3d6000fd5b505050506040513d601f19601f8201168201806040525081019061174a9190612013565b6117549086612208565b61175e91906121e8565b9050611805817f00000000000000000000000000000000000000000000000000000000000000006001600160a01b03166370a08231306040518263ffffffff1660e01b81526004016117b09190612087565b60206040518083038186803b1580156117c857600080fd5b505afa1580156117dc573d6000803e3d6000fd5b505050506040513d601f19601f820116820180604052508101906118009190612013565b611be5565b604051632e1a7d4d60e01b8152600481018290529091507f00000000000000000000000000000000000000000000000000000000000000006001600160a01b031690632e1a7d4d90602401600060405180830381600087803b15801561186a57600080fd5b505af115801561187e573d6000803e3d6000fd5b50506040516370a0823160e01b8152600092506001600160a01b037f00000000000000000000000000000000000000000000000000000000000000001691506370a08231906118d1903090600401612087565b60206040518083038186803b1580156118e957600080fd5b505afa1580156118fd573d6000803e3d6000fd5b505050506040513d601f19601f820116820180604052508101906119219190612013565b9050600061192f8483612266565b90506000811161199f5760405162461bcd60e51b815260206004820152603560248201527f414d2073686f756c6420726563656976652072657175657374656420746f6b656044820152746e732061667465722074686520776974686472617760581b6064820152608401610410565b6040518181527f483f4a9cef98089bf44b3bcc132ec36c0d47a323aa6a006b5437d2b1d853478b9060200160405180910390a195945050505050565b60408051600280825260608201909252600091816020015b6040805160808101825260008082526020808301829052928201819052606082015282526000199092019101816119f3579050506040805160808101909152909150806002815260200160005481526020017f00000000000000000000000000000000000000000000000000000000000000006001600160a01b03168152602001611a7c61100b565b81525081600081518110611aa057634e487b7160e01b600052603260045260246000fd5b60209081029190910101526040805160808101909152806000815260200160005481526020017f00000000000000000000000000000000000000000000000000000000000000006001600160a01b031681526020018381525081600181518110611b1a57634e487b7160e01b600052603260045260246000fd5b6020908102919091010152604051637362304960e11b81526001600160a01b037f0000000000000000000000000000000000000000000000000000000000000000169063e6c4609290611b7190849060040161209b565b600060405180830381600087803b158015611b8b57600080fd5b505af1158015611b9f573d6000803e3d6000fd5b505050506109d082611bfb565b60608315611bbb575081610c6a565b825115611bcb5782518084602001fd5b8160405162461bcd60e51b81526004016104109190612124565b6000818310611bf45781610c6a565b5090919050565b6000807f00000000000000000000000000000000000000000000000000000000000000006001600160a01b03166370a08231306040518263ffffffff1660e01b8152600401611c4a9190612087565b60206040518083038186803b158015611c6257600080fd5b505afa158015611c76573d6000803e3d6000fd5b505050506040513d601f19601f82011682018060405250810190611c9a9190612013565b60405163b6b55f2560e01b8152600481018590529091507f00000000000000000000000000000000000000000000000000000000000000006001600160a01b03169063b6b55f2590602401600060405180830381600087803b158015611cff57600080fd5b505af1158015611d13573d6000803e3d6000fd5b50506040516370a0823160e01b8152600092506001600160a01b037f00000000000000000000000000000000000000000000000000000000000000001691506370a0823190611d66903090600401612087565b60206040518083038186803b158015611d7e57600080fd5b505afa158015611d92573d6000803e3d6000fd5b505050506040513d601f19601f82011682018060405250810190611db69190612013565b9050818111611e1a5760405162461bcd60e51b815260206004820152602a60248201527f414d2073686f756c6420726563656976652073686172657320616674657220746044820152691a194819195c1bdcda5d60b21b6064820152608401610410565b6040518481527fac9f7997c30b6a3cc9c74953898b5de154359339c7ec0d6d70ceb98e55db1a4b9060200160405180910390a1509192915050565b80516001600160401b0381168114611e6c57600080fd5b919050565b600060208284031215611e82578081fd5b8151610c6a816122ed565b600060208284031215611e9e578081fd5b5035919050565b60008060408385031215611eb7578081fd5b823591506020830135611ec9816122ed565b809150509250929050565b60008060408385031215611ee6578182fd5b823591506020808401356001600160401b0380821115611f04578384fd5b818601915086601f830112611f17578384fd5b813581811115611f2957611f296122bf565b611f3b601f8201601f191685016121a0565b91508082528784828501011115611f50578485fd5b8084840185840137810190920192909252919491935090915050565b60008060408385031215611f7e578182fd5b50508035926020909101359150565b600060208284031215611f9e578081fd5b8151610c6a816122d5565b600060608284031215611fba578081fd5b604051606081018181106001600160401b0382111715611fdc57611fdc6122bf565b604052611fe883611e55565b8152611ff660208401611e55565b602082015261200760408401611e55565b60408201529392505050565b600060208284031215612024578081fd5b5051919050565b60008060008060808587031215612040578182fd5b8451935060208501519250604085015191506060850151612060816122d5565b939692955090935050565b6000825161207d81846020870161227d565b9190910192915050565b6001600160a01b0391909116815260200190565b602080825282518282018190526000919060409081850190868401855b828110156121175781518051600381106120e057634e487b7160e01b89526021600452602489fd5b85528087015187860152858101516001600160a01b03168686015260609081015190850152608090930192908501906001016120b8565b5091979650505050505050565b602081526000825180602084015261214381604085016020870161227d565b601f01601f19169190910160400192915050565b60208082526029908201527f41737365744d616e616765722063616c6c6564207769746820696e636f72726560408201526818dd081c1bdbdb125960ba1b606082015260800190565b604051601f8201601f191681016001600160401b03811182821017156121c8576121c86122bf565b604052919050565b600082198211156121e3576121e36122a9565b500190565b60008261220357634e487b7160e01b81526012600452602481fd5b500490565b6000816000190483118215151615612222576122226122a9565b500290565b60008083128015600160ff1b850184121615612245576122456122a9565b6001600160ff1b0384018313811615612260576122606122a9565b50500390565b600082821015612278576122786122a9565b500390565b60005b83811015612298578181015183820152602001612280565b83811115610fee5750506000910152565b634e487b7160e01b600052601160045260246000fd5b634e487b7160e01b600052604160045260246000fd5b6001600160a01b03811681146122ea57600080fd5b50565b80151581146122ea57600080fdfea26469706673582212209d87774c479e0d2da329f1a0e578ea80b04d4308318c517f98045d085503309564736f6c63430008040033",
  "devdoc": {
    "details": "TetuVaultAssetManager can invest funds to the TETU vault. Rewards will be claimed and distributed by governance",
    "kind": "dev",
    "methods": {
      "capitalOut(bytes32,uint256)": {
        "params": {
          "amount": "- the amount of tokens to withdraw back to the pool",
          "pId": "- the poolId of the pool to withdraw funds back to"
        }
      },
      "claimRewards()": {
        "details": "Claim all rewards and send to rewardCollector"
      },
      "getAUM(bytes32)": {
        "params": {
          "pId": "- the poolId"
        }
      },
      "getInvestmentConfig(bytes32)": {
        "params": {
          "pId": "- the poolId"
        }
      },
      "getPoolBalances(bytes32)": {
        "params": {
          "pId": "- the poolId"
        }
      },
      "initialize(bytes32)": {
        "details": "Should be called in same transaction as deployment through a factory contract",
        "params": {
          "pId": "- the id of the pool"
        }
      },
      "maxInvestableBalance(bytes32)": {
        "details": "returns amount of tokens which will be invested or devested during rebalace action. Could be negative number in case of devest."
      },
      "rebalance(bytes32,bool)": {
        "params": {
          "force": "- if true rebalaces pool immediately to target value from AM config,        otherwise checks shouldRebalance first."
        }
      },
      "updateBalanceOfPool(bytes32)": {
        "details": "Is used to update Balancer's vault with amount controlled by AM. E.g. if amount of tokens increased due to compounded investments."
      }
    },
    "title": "TetuVaultAssetManager",
    "version": 1
  },
  "userdoc": {
    "events": {
      "Rebalance(bytes32)": {
        "notice": "Emitted when asset manager is rebalanced"
      }
    },
    "kind": "user",
    "methods": {
      "capitalOut(bytes32,uint256)": {
        "notice": "allows an authorized rebalancer to remove capital to facilitate large withdrawals"
      },
      "getAUM(bytes32)": {
        "notice": "shows amount of tokens under management by this AM (currently invested)"
      },
      "getInvestmentConfig(bytes32)": {
        "notice": "return investment config"
      },
      "getPoolAddress()": {
        "notice": "return attached pool address for this Asset Manager"
      },
      "getPoolBalances(bytes32)": {
        "notice": "shows amount of tokens in Balancer Vault and controlled by the AM."
      },
      "getToken()": {
        "notice": "return underlying token which managed by AssetManager"
      },
      "initialize(bytes32)": {
        "notice": "We need to provide AM during pool creation but AM should know the PoolID.   To resolve this cyclic reference we need to have a separate method to store poolId"
      },
      "maxInvestableBalance(bytes32)": {
        "notice": "return amount of underlying token which can be invested by AM according to configuration. After the rebalance expected to be 0 e.g target is 80% and current investment is 60% thus 20% of pool TVL can be invested."
      },
      "rebalance(bytes32,bool)": {
        "notice": "Rebalances funds between pool and asset manager to maintain target investment percentage."
      },
      "setConfig(bytes32,bytes)": {
        "notice": "If invested amount is lower than this amount in percents, shouldRebalance returns true."
      },
      "shouldRebalance(uint256,uint256)": {
        "notice": "Determines whether the pool should rebalance given the provided balances"
      }
    },
    "version": 1
  },
  "storageLayout": {
    "storage": [
      {
        "astId": 412,
        "contract": "contracts/TetuVaultAssetManager.sol:TetuVaultAssetManager",
        "label": "poolId",
        "offset": 0,
        "slot": "0",
        "type": "t_bytes32"
      },
      {
        "astId": 415,
        "contract": "contracts/TetuVaultAssetManager.sol:TetuVaultAssetManager",
        "label": "_config",
        "offset": 0,
        "slot": "1",
        "type": "t_struct(InvestmentConfig)2210_storage"
      }
    ],
    "types": {
      "t_bytes32": {
        "encoding": "inplace",
        "label": "bytes32",
        "numberOfBytes": "32"
      },
      "t_struct(InvestmentConfig)2210_storage": {
        "encoding": "inplace",
        "label": "struct IAssetManagerBase.InvestmentConfig",
        "members": [
          {
            "astId": 2205,
            "contract": "contracts/TetuVaultAssetManager.sol:TetuVaultAssetManager",
            "label": "targetPercentage",
            "offset": 0,
            "slot": "0",
            "type": "t_uint64"
          },
          {
            "astId": 2207,
            "contract": "contracts/TetuVaultAssetManager.sol:TetuVaultAssetManager",
            "label": "upperCriticalPercentage",
            "offset": 8,
            "slot": "0",
            "type": "t_uint64"
          },
          {
            "astId": 2209,
            "contract": "contracts/TetuVaultAssetManager.sol:TetuVaultAssetManager",
            "label": "lowerCriticalPercentage",
            "offset": 16,
            "slot": "0",
            "type": "t_uint64"
          }
        ],
        "numberOfBytes": "32"
      },
      "t_uint64": {
        "encoding": "inplace",
        "label": "uint64",
        "numberOfBytes": "8"
      }
    }
  }
}